{
  "contractName": "BNBrocket",
  "abi": [
    {
      "inputs": [
        {
          "internalType": "address payable",
          "name": "devAddr",
          "type": "address"
        },
        {
          "internalType": "address payable",
          "name": "SecAddr",
          "type": "address"
        },
        {
          "internalType": "address payable",
          "name": "markAddrs",
          "type": "address"
        },
        {
          "internalType": "address payable",
          "name": "projectAddrs",
          "type": "address"
        },
        {
          "internalType": "address payable",
          "name": "partAddr",
          "type": "address"
        },
        {
          "internalType": "contract IBEP20",
          "name": "token_",
          "type": "address"
        }
      ],
      "stateMutability": "nonpayable",
      "type": "constructor"
    },
    {
      "anonymous": false,
      "inputs": [
        {
          "indexed": true,
          "internalType": "address",
          "name": "user",
          "type": "address"
        },
        {
          "indexed": false,
          "internalType": "uint256",
          "name": "totalAmount",
          "type": "uint256"
        }
      ],
      "name": "FeePayed",
      "type": "event"
    },
    {
      "anonymous": false,
      "inputs": [
        {
          "indexed": true,
          "internalType": "address",
          "name": "user",
          "type": "address"
        },
        {
          "indexed": false,
          "internalType": "uint256",
          "name": "amount",
          "type": "uint256"
        }
      ],
      "name": "NewDeposit",
      "type": "event"
    },
    {
      "anonymous": false,
      "inputs": [
        {
          "indexed": false,
          "internalType": "address",
          "name": "user",
          "type": "address"
        }
      ],
      "name": "Newbie",
      "type": "event"
    },
    {
      "anonymous": false,
      "inputs": [
        {
          "indexed": false,
          "internalType": "address",
          "name": "account",
          "type": "address"
        }
      ],
      "name": "Paused",
      "type": "event"
    },
    {
      "anonymous": false,
      "inputs": [
        {
          "indexed": true,
          "internalType": "address",
          "name": "referrer",
          "type": "address"
        },
        {
          "indexed": true,
          "internalType": "address",
          "name": "referral",
          "type": "address"
        },
        {
          "indexed": true,
          "internalType": "uint256",
          "name": "level",
          "type": "uint256"
        },
        {
          "indexed": false,
          "internalType": "uint256",
          "name": "amount",
          "type": "uint256"
        }
      ],
      "name": "RefBonus",
      "type": "event"
    },
    {
      "anonymous": false,
      "inputs": [
        {
          "indexed": true,
          "internalType": "address",
          "name": "user",
          "type": "address"
        },
        {
          "indexed": false,
          "internalType": "uint256",
          "name": "amount",
          "type": "uint256"
        }
      ],
      "name": "Reinvestment",
      "type": "event"
    },
    {
      "anonymous": false,
      "inputs": [
        {
          "indexed": false,
          "internalType": "address",
          "name": "account",
          "type": "address"
        }
      ],
      "name": "Unpaused",
      "type": "event"
    },
    {
      "anonymous": false,
      "inputs": [
        {
          "indexed": true,
          "internalType": "address",
          "name": "user",
          "type": "address"
        },
        {
          "indexed": false,
          "internalType": "uint256",
          "name": "amount",
          "type": "uint256"
        }
      ],
      "name": "Withdrawn",
      "type": "event"
    },
    {
      "inputs": [],
      "name": "devAddress",
      "outputs": [
        {
          "internalType": "address",
          "name": "",
          "type": "address"
        }
      ],
      "stateMutability": "view",
      "type": "function"
    },
    {
      "inputs": [],
      "name": "isPaused",
      "outputs": [
        {
          "internalType": "bool",
          "name": "",
          "type": "bool"
        }
      ],
      "stateMutability": "view",
      "type": "function"
    },
    {
      "inputs": [],
      "name": "marketingAdress",
      "outputs": [
        {
          "internalType": "address",
          "name": "",
          "type": "address"
        }
      ],
      "stateMutability": "view",
      "type": "function"
    },
    {
      "inputs": [],
      "name": "partnerAdress",
      "outputs": [
        {
          "internalType": "address",
          "name": "",
          "type": "address"
        }
      ],
      "stateMutability": "view",
      "type": "function"
    },
    {
      "inputs": [],
      "name": "projectAdress",
      "outputs": [
        {
          "internalType": "address",
          "name": "",
          "type": "address"
        }
      ],
      "stateMutability": "view",
      "type": "function"
    },
    {
      "inputs": [],
      "name": "secureAddress",
      "outputs": [
        {
          "internalType": "address",
          "name": "",
          "type": "address"
        }
      ],
      "stateMutability": "view",
      "type": "function"
    },
    {
      "inputs": [],
      "name": "token",
      "outputs": [
        {
          "internalType": "contract IBEP20",
          "name": "",
          "type": "address"
        }
      ],
      "stateMutability": "view",
      "type": "function"
    },
    {
      "inputs": [],
      "name": "unpause",
      "outputs": [],
      "stateMutability": "nonpayable",
      "type": "function"
    },
    {
      "inputs": [
        {
          "internalType": "address",
          "name": "",
          "type": "address"
        }
      ],
      "name": "users",
      "outputs": [
        {
          "internalType": "uint256",
          "name": "depositsLength",
          "type": "uint256"
        },
        {
          "internalType": "uint256",
          "name": "reinvested",
          "type": "uint256"
        },
        {
          "internalType": "uint256",
          "name": "bonus",
          "type": "uint256"
        },
        {
          "internalType": "uint256",
          "name": "checkpoint",
          "type": "uint256"
        },
        {
          "internalType": "uint256",
          "name": "lasReinvest",
          "type": "uint256"
        },
        {
          "internalType": "address payable",
          "name": "referrer",
          "type": "address"
        }
      ],
      "stateMutability": "view",
      "type": "function"
    },
    {
      "inputs": [],
      "name": "checkUser",
      "outputs": [
        {
          "internalType": "bool",
          "name": "",
          "type": "bool"
        }
      ],
      "stateMutability": "view",
      "type": "function"
    },
    {
      "inputs": [
        {
          "internalType": "address payable",
          "name": "referrer",
          "type": "address"
        },
        {
          "internalType": "uint256",
          "name": "investAmt",
          "type": "uint256"
        }
      ],
      "name": "invest",
      "outputs": [],
      "stateMutability": "nonpayable",
      "type": "function"
    },
    {
      "inputs": [],
      "name": "withdraw",
      "outputs": [
        {
          "internalType": "bool",
          "name": "",
          "type": "bool"
        }
      ],
      "stateMutability": "nonpayable",
      "type": "function"
    },
    {
      "inputs": [],
      "name": "reinvestment",
      "outputs": [
        {
          "internalType": "bool",
          "name": "",
          "type": "bool"
        }
      ],
      "stateMutability": "nonpayable",
      "type": "function"
    },
    {
      "inputs": [
        {
          "internalType": "address",
          "name": "userAddress",
          "type": "address"
        }
      ],
      "name": "getNextUserAssignment",
      "outputs": [
        {
          "internalType": "uint256",
          "name": "",
          "type": "uint256"
        }
      ],
      "stateMutability": "view",
      "type": "function"
    },
    {
      "inputs": [
        {
          "internalType": "address",
          "name": "userAddress",
          "type": "address"
        }
      ],
      "name": "getUserholdRate",
      "outputs": [
        {
          "internalType": "uint256",
          "name": "",
          "type": "uint256"
        }
      ],
      "stateMutability": "view",
      "type": "function"
    },
    {
      "inputs": [],
      "name": "getPublicData",
      "outputs": [
        {
          "internalType": "uint256",
          "name": "totalUsers_",
          "type": "uint256"
        },
        {
          "internalType": "uint256",
          "name": "totalInvested_",
          "type": "uint256"
        },
        {
          "internalType": "uint256",
          "name": "totalReinvested_",
          "type": "uint256"
        },
        {
          "internalType": "uint256",
          "name": "totalWithdrawn_",
          "type": "uint256"
        },
        {
          "internalType": "uint256",
          "name": "totalDeposits_",
          "type": "uint256"
        },
        {
          "internalType": "uint256",
          "name": "balance_",
          "type": "uint256"
        },
        {
          "internalType": "uint256",
          "name": "roidBase",
          "type": "uint256"
        },
        {
          "internalType": "uint256",
          "name": "bonusPool",
          "type": "uint256"
        },
        {
          "internalType": "uint256",
          "name": "comunityBonus",
          "type": "uint256"
        },
        {
          "internalType": "uint256",
          "name": "currentRoi",
          "type": "uint256"
        },
        {
          "internalType": "uint256",
          "name": "maxProfit",
          "type": "uint256"
        },
        {
          "internalType": "uint256",
          "name": "minDeposit",
          "type": "uint256"
        },
        {
          "internalType": "uint256",
          "name": "daysFormdeploy",
          "type": "uint256"
        }
      ],
      "stateMutability": "view",
      "type": "function"
    },
    {
      "inputs": [
        {
          "internalType": "address",
          "name": "userAddress",
          "type": "address"
        }
      ],
      "name": "getUserData",
      "outputs": [
        {
          "internalType": "uint256",
          "name": "totalWithdrawn_",
          "type": "uint256"
        },
        {
          "internalType": "uint256",
          "name": "totalDeposits_",
          "type": "uint256"
        },
        {
          "internalType": "uint256",
          "name": "totalBonus_",
          "type": "uint256"
        },
        {
          "internalType": "uint256",
          "name": "totalreinvest_",
          "type": "uint256"
        },
        {
          "internalType": "uint256",
          "name": "hold_",
          "type": "uint256"
        },
        {
          "internalType": "uint256",
          "name": "balance_",
          "type": "uint256"
        },
        {
          "internalType": "uint256",
          "name": "nextAssignment_",
          "type": "uint256"
        },
        {
          "internalType": "uint256",
          "name": "amountOfDeposits",
          "type": "uint256"
        },
        {
          "internalType": "uint256",
          "name": "checkpoint",
          "type": "uint256"
        },
        {
          "internalType": "bool",
          "name": "isUser_",
          "type": "bool"
        },
        {
          "internalType": "address",
          "name": "referrer_",
          "type": "address"
        },
        {
          "internalType": "uint256[3]",
          "name": "referrerCount_",
          "type": "uint256[3]"
        }
      ],
      "stateMutability": "view",
      "type": "function"
    },
    {
      "inputs": [],
      "name": "getContractBalance",
      "outputs": [
        {
          "internalType": "uint256",
          "name": "",
          "type": "uint256"
        }
      ],
      "stateMutability": "view",
      "type": "function"
    },
    {
      "inputs": [
        {
          "internalType": "address",
          "name": "userAddress",
          "type": "address"
        }
      ],
      "name": "isActive",
      "outputs": [
        {
          "internalType": "bool",
          "name": "",
          "type": "bool"
        }
      ],
      "stateMutability": "view",
      "type": "function"
    },
    {
      "inputs": [
        {
          "internalType": "address",
          "name": "userAddress",
          "type": "address"
        },
        {
          "internalType": "uint256",
          "name": "index",
          "type": "uint256"
        }
      ],
      "name": "getUserDepositInfo",
      "outputs": [
        {
          "internalType": "uint256",
          "name": "initAmount_",
          "type": "uint256"
        },
        {
          "internalType": "uint256",
          "name": "amount_",
          "type": "uint256"
        },
        {
          "internalType": "uint256",
          "name": "withdrawn_",
          "type": "uint256"
        },
        {
          "internalType": "uint256",
          "name": "timeStart_",
          "type": "uint256"
        },
        {
          "internalType": "uint256",
          "name": "reinvested_",
          "type": "uint256"
        },
        {
          "internalType": "uint256",
          "name": "maxProfit",
          "type": "uint256"
        }
      ],
      "stateMutability": "view",
      "type": "function"
    },
    {
      "inputs": [],
      "name": "getComunityBonus",
      "outputs": [
        {
          "internalType": "uint256",
          "name": "",
          "type": "uint256"
        }
      ],
      "stateMutability": "view",
      "type": "function"
    },
    {
      "inputs": [],
      "name": "getBonusPoolPercent",
      "outputs": [
        {
          "internalType": "uint256",
          "name": "",
          "type": "uint256"
        }
      ],
      "stateMutability": "view",
      "type": "function"
    }
  ],
  "bytecode": "0x60806040526040518060600160405280603260ff168152602001601460ff168152602001600a60ff1681525060019060036200003d92919062000312565b503480156200004b57600080fd5b506040516200438038038062004380833981810160405260c08110156200007157600080fd5b81019080805190602001909291908051906020019092919080519060200190929190805190602001909291908051906020019092919080519060200190929190505050620000c586620002ff60201b60201c565b158015620000e15750620000df85620002ff60201b60201c565b155b8015620000fc5750620000fa82620002ff60201b60201c565b155b80156200011757506200011584620002ff60201b60201c565b155b6200012157600080fd5b84600e60006101000a81548173ffffffffffffffffffffffffffffffffffffffff021916908373ffffffffffffffffffffffffffffffffffffffff16021790555085600d60006101000a81548173ffffffffffffffffffffffffffffffffffffffff021916908373ffffffffffffffffffffffffffffffffffffffff16021790555082600c60006101000a81548173ffffffffffffffffffffffffffffffffffffffff021916908373ffffffffffffffffffffffffffffffffffffffff16021790555081600a60006101000a81548173ffffffffffffffffffffffffffffffffffffffff021916908373ffffffffffffffffffffffffffffffffffffffff16021790555083600b60006101000a81548173ffffffffffffffffffffffffffffffffffffffff021916908373ffffffffffffffffffffffffffffffffffffffff160217905550806000806101000a81548173ffffffffffffffffffffffffffffffffffffffff021916908373ffffffffffffffffffffffffffffffffffffffff1602179055507f62e78cea01bee320cd4e420270b5ea74000d11b0c9f74754ebdbfc544b05a25833604051808273ffffffffffffffffffffffffffffffffffffffff16815260200191505060405180910390a15050505050506200037b565b600080823b905060008111915050919050565b826003810192821562000349579160200282015b8281111562000348578251829060ff1690559160200191906001019062000326565b5b5090506200035891906200035c565b5090565b5b80821115620003775760008160009055506001016200035d565b5090565b613ff5806200038b6000396000f3fe608060405234801561001057600080fd5b50600436106101425760003560e01c8063b5eef3c3116100b8578063c15625471161007c578063c15625471461050b578063ca6d919c1461052b578063d7bd480a1461055f578063fc0c546a146105b7578063ff6f5dd7146105eb578063ffc9896b1461064357610142565b8063b5eef3c314610374578063b83fff0914610392578063b9b8c246146103c6578063bf7ce74214610414578063c0806b031461048657610142565b80636ee16c5b1161010a5780636ee16c5b1461020d5780636f9fb98a1461022b5780639f8a13d714610249578063a87430ba146102a3578063b187bd2614610334578063b5e86bea1461035457610142565b80633ad10ef6146101475780633ccfd60b1461017b5780633f4ba83a1461019b578063520a5935146101a55780635a759d65146101d9575b600080fd5b61014f610728565b604051808273ffffffffffffffffffffffffffffffffffffffff16815260200191505060405180910390f35b61018361074e565b60405180821515815260200191505060405180910390f35b6101a3610fbe565b005b6101ad61114f565b604051808273ffffffffffffffffffffffffffffffffffffffff16815260200191505060405180910390f35b6101e1611175565b604051808273ffffffffffffffffffffffffffffffffffffffff16815260200191505060405180910390f35b61021561119b565b6040518082815260200191505060405180910390f35b6102336111f6565b6040518082815260200191505060405180910390f35b61028b6004803603602081101561025f57600080fd5b81019080803573ffffffffffffffffffffffffffffffffffffffff1690602001909291905050506112c0565b60405180821515815260200191505060405180910390f35b6102e5600480360360208110156102b957600080fd5b81019080803573ffffffffffffffffffffffffffffffffffffffff1690602001909291905050506114fb565b604051808781526020018681526020018581526020018481526020018381526020018273ffffffffffffffffffffffffffffffffffffffff168152602001965050505050505060405180910390f35b61033c611557565b60405180821515815260200191505060405180910390f35b61035c611563565b60405180821515815260200191505060405180910390f35b61037c611dbd565b6040518082815260200191505060405180910390f35b61039a611e0d565b604051808273ffffffffffffffffffffffffffffffffffffffff16815260200191505060405180910390f35b610412600480360360408110156103dc57600080fd5b81019080803573ffffffffffffffffffffffffffffffffffffffff16906020019092919080359060200190929190505050611e33565b005b61041c612bee565b604051808e81526020018d81526020018c81526020018b81526020018a81526020018981526020018881526020018781526020018681526020018581526020018481526020018381526020018281526020019d505050505050505050505050505060405180910390f35b6104d26004803603604081101561049c57600080fd5b81019080803573ffffffffffffffffffffffffffffffffffffffff16906020019092919080359060200190929190505050612cae565b60405180878152602001868152602001858152602001848152602001838152602001828152602001965050505050505060405180910390f35b610513612ea6565b60405180821515815260200191505060405180910390f35b610533612ff4565b604051808273ffffffffffffffffffffffffffffffffffffffff16815260200191505060405180910390f35b6105a16004803603602081101561057557600080fd5b81019080803573ffffffffffffffffffffffffffffffffffffffff16906020019092919050505061301a565b6040518082815260200191505060405180910390f35b6105bf6130dc565b604051808273ffffffffffffffffffffffffffffffffffffffff16815260200191505060405180910390f35b61062d6004803603602081101561060157600080fd5b81019080803573ffffffffffffffffffffffffffffffffffffffff169060200190929190505050613100565b6040518082815260200191505060405180910390f35b6106856004803603602081101561065957600080fd5b81019080803573ffffffffffffffffffffffffffffffffffffffff169060200190929190505050613250565b604051808d81526020018c81526020018b81526020018a815260200189815260200188815260200187815260200186815260200185815260200184151581526020018373ffffffffffffffffffffffffffffffffffffffff16815260200182600360200280838360005b8381101561070a5780820151818401526020810190506106ef565b505050509050019c5050505050505050505050505060405180910390f35b600d60009054906101000a900473ffffffffffffffffffffffffffffffffffffffff1681565b600080600454116107c7576040517f08c379a00000000000000000000000000000000000000000000000000000000081526004018080602001828103825260108152602001807f5061757361626c653a207061757365640000000000000000000000000000000081525060200191505060405180910390fd5b60006108fa6108eb600f60003373ffffffffffffffffffffffffffffffffffffffff1673ffffffffffffffffffffffffffffffffffffffff1681526020019081526020016000206040518060e0016040529081600182015481526020016002820154815260200160038201548152602001600482015481526020016005820154815260200160068201600380602002604051908101604052809291908260038015610887576020028201915b815481526020019060010190808311610873575b505050505081526020016009820160009054906101000a900473ffffffffffffffffffffffffffffffffffffffff1673ffffffffffffffffffffffffffffffffffffffff1673ffffffffffffffffffffffffffffffffffffffff1681525050613409565b4261344990919063ffffffff16565b9050603c8111610972576040517f08c379a000000000000000000000000000000000000000000000000000000000815260040180806020018281038252600f8152602001807f74727920616761696e206c61746572000000000000000000000000000000000081525060200191505060405180910390fd5b61097b336112c0565b6109ed576040517f08c379a000000000000000000000000000000000000000000000000000000000815260040180806020018281038252600c8152602001807f446f6e742069732055736572000000000000000000000000000000000000000081525060200191505060405180910390fd5b6000600f60003373ffffffffffffffffffffffffffffffffffffffff1673ffffffffffffffffffffffffffffffffffffffff1681526020019081526020016000209050600080610a55610a3e611dbd565b610a473361301a565b61349390919063ffffffff16565b905060005b8360010154811015610c29576000610a70613efb565b8560000160008481526020019081526020016000206040518060800160405290816000820154815260200160018201548152602001600282015481526020016003820154815250509050610ac38161351b565b81602001511015610c1a57610bb18185886040518060e0016040529081600182015481526020016002820154815260200160038201548152602001600482015481526020016005820154815260200160068201600380602002604051908101604052809291908260038015610b4d576020028201915b815481526020019060010190808311610b39575b505050505081526020016009820160009054906101000a900473ffffffffffffffffffffffffffffffffffffffff1673ffffffffffffffffffffffffffffffffffffffff1673ffffffffffffffffffffffffffffffffffffffff1681525050613551565b91506000821115610c1957610be7828760000160008681526020019081526020016000206001015461349390919063ffffffff16565b86600001600085815260200190815260200160002060010181905550610c16828661349390919063ffffffff16565b94505b5b50508080600101915050610a5a565b506000836003015490506000811115610c5a57610c4f818461349390919063ffffffff16565b925083600301600090555b6703782dace9d90000831015610cd8576040517f08c379a00000000000000000000000000000000000000000000000000000000081526004018080602001828103825260158152602001807f5573657220686173206e6f206469766964656e6473000000000000000000000081525060200191505060405180910390fd5b6000610ce26111f6565b905083811015610cf0578093505b4285600401819055506000610d236103e8610d1560328861365590919063ffffffff16565b6136db90919063ffffffff16565b90506000610d3a828761344990919063ffffffff16565b9050610d518660075461349390919063ffffffff16565b60078190555060008054906101000a900473ffffffffffffffffffffffffffffffffffffffff1673ffffffffffffffffffffffffffffffffffffffff1663a9059cbb600e60009054906101000a900473ffffffffffffffffffffffffffffffffffffffff16846040518363ffffffff1660e01b8152600401808373ffffffffffffffffffffffffffffffffffffffff16815260200182815260200192505050602060405180830381600087803b158015610e0a57600080fd5b505af1158015610e1e573d6000803e3d6000fd5b505050506040513d6020811015610e3457600080fd5b81019080805190602001909291905050505060008054906101000a900473ffffffffffffffffffffffffffffffffffffffff1673ffffffffffffffffffffffffffffffffffffffff1663a9059cbb33836040518363ffffffff1660e01b8152600401808373ffffffffffffffffffffffffffffffffffffffff16815260200182815260200192505050602060405180830381600087803b158015610ed757600080fd5b505af1158015610eeb573d6000803e3d6000fd5b505050506040513d6020811015610f0157600080fd5b8101908080519060200190929190505050503373ffffffffffffffffffffffffffffffffffffffff167f2899dc8c12def1caa9accb64257cf2fd9f960f21bb27a560a757eae3c2ec43c1836040518082815260200191505060405180910390a23373ffffffffffffffffffffffffffffffffffffffff167f7084f5476618d8e60b11ef0d7d3f06914655adb8793e28ff7f018d4c76d505d5876040518082815260200191505060405180910390a260019850505050505050505090565b600060045414611036576040517f08c379a00000000000000000000000000000000000000000000000000000000081526004018080602001828103825260148152602001807f5061757361626c653a206e6f742070617573656400000000000000000000000081525060200191505060405180910390fd5b3373ffffffffffffffffffffffffffffffffffffffff16600d60009054906101000a900473ffffffffffffffffffffffffffffffffffffffff1673ffffffffffffffffffffffffffffffffffffffff16146110f9576040517f08c379a00000000000000000000000000000000000000000000000000000000081526004018080602001828103825260208152602001807f4f776e61626c653a2063616c6c6572206973206e6f7420746865206f776e657281525060200191505060405180910390fd5b426004819055507f5db9ee0a495bf2e6ff9c91a7834c1ba4fdd244a5e8aa4e537bd38aeae4b073aa33604051808273ffffffffffffffffffffffffffffffffffffffff16815260200191505060405180910390a1565b600b60009054906101000a900473ffffffffffffffffffffffffffffffffffffffff1681565b600e60009054906101000a900473ffffffffffffffffffffffffffffffffffffffff1681565b6000806111c6603c6111b86004544261344990919063ffffffff16565b6136db90919063ffffffff16565b905060006111de600a8361365590919063ffffffff16565b905060508111156111ee57605090505b809250505090565b60008060009054906101000a900473ffffffffffffffffffffffffffffffffffffffff1673ffffffffffffffffffffffffffffffffffffffff166370a08231306040518263ffffffff1660e01b8152600401808273ffffffffffffffffffffffffffffffffffffffff16815260200191505060206040518083038186803b15801561128057600080fd5b505afa158015611294573d6000803e3d6000fd5b505050506040513d60208110156112aa57600080fd5b8101908080519060200190929190505050905090565b60006112ca613f23565b600f60008473ffffffffffffffffffffffffffffffffffffffff1673ffffffffffffffffffffffffffffffffffffffff1681526020019081526020016000206040518060e0016040529081600182015481526020016002820154815260200160038201548152602001600482015481526020016005820154815260200160068201600380602002604051908101604052809291908260038015611382576020028201915b81548152602001906001019080831161136e575b505050505081526020016009820160009054906101000a900473ffffffffffffffffffffffffffffffffffffffff1673ffffffffffffffffffffffffffffffffffffffff1673ffffffffffffffffffffffffffffffffffffffff168152505090506000816000015111156114f457611485600f60008573ffffffffffffffffffffffffffffffffffffffff1673ffffffffffffffffffffffffffffffffffffffff16815260200190815260200160002060000160006001846000015103815260200190815260200160002060405180608001604052908160008201548152602001600182015481526020016002820154815260200160038201548152505061351b565b600f60008573ffffffffffffffffffffffffffffffffffffffff1673ffffffffffffffffffffffffffffffffffffffff1681526020019081526020016000206000016000600184600001510381526020019081526020016000206001015410156114f35760019150506114f6565b5b505b919050565b600f6020528060005260406000206000915090508060010154908060020154908060030154908060040154908060050154908060090160009054906101000a900473ffffffffffffffffffffffffffffffffffffffff16905086565b60008060045414905090565b600080600454116115dc576040517f08c379a00000000000000000000000000000000000000000000000000000000081526004018080602001828103825260108152602001807f5061757361626c653a207061757365640000000000000000000000000000000081525060200191505060405180910390fd5b600061170f611700600f60003373ffffffffffffffffffffffffffffffffffffffff1673ffffffffffffffffffffffffffffffffffffffff1681526020019081526020016000206040518060e001604052908160018201548152602001600282015481526020016003820154815260200160048201548152602001600582015481526020016006820160038060200260405190810160405280929190826003801561169c576020028201915b815481526020019060010190808311611688575b505050505081526020016009820160009054906101000a900473ffffffffffffffffffffffffffffffffffffffff1673ffffffffffffffffffffffffffffffffffffffff1673ffffffffffffffffffffffffffffffffffffffff1681525050613409565b4261344990919063ffffffff16565b9050603c8111611787576040517f08c379a000000000000000000000000000000000000000000000000000000000815260040180806020018281038252600f8152602001807f74727920616761696e206c61746572000000000000000000000000000000000081525060200191505060405180910390fd5b611790336112c0565b611802576040517f08c379a000000000000000000000000000000000000000000000000000000000815260040180806020018281038252600c8152602001807f446f6e742069732055736572000000000000000000000000000000000000000081525060200191505060405180910390fd5b6000600f60003373ffffffffffffffffffffffffffffffffffffffff1673ffffffffffffffffffffffffffffffffffffffff168152602001908152602001600020905060008061186a611853611dbd565b61185c3361301a565b61349390919063ffffffff16565b905060005b8360010154811015611a3e576000611885613efb565b85600001600084815260200190815260200160002060405180608001604052908160008201548152602001600182015481526020016002820154815260200160038201548152505090506118d88161351b565b81602001511015611a2f576119c68185886040518060e0016040529081600182015481526020016002820154815260200160038201548152602001600482015481526020016005820154815260200160068201600380602002604051908101604052809291908260038015611962576020028201915b81548152602001906001019080831161194e575b505050505081526020016009820160009054906101000a900473ffffffffffffffffffffffffffffffffffffffff1673ffffffffffffffffffffffffffffffffffffffff1673ffffffffffffffffffffffffffffffffffffffff1681525050613551565b91506000821115611a2e576119fc828760000160008681526020019081526020016000206000015461349390919063ffffffff16565b86600001600085815260200190815260200160002060000181905550611a2b828661349390919063ffffffff16565b94505b5b5050808060010191505061186f565b5060008211611ab5576040517f08c379a00000000000000000000000000000000000000000000000000000000081526004018080602001828103825260158152602001807f5573657220686173206e6f206469766964656e6473000000000000000000000081525060200191505060405180910390fd5b611acc82846002015461349390919063ffffffff16565b8360020181905550611ae98260095461349390919063ffffffff16565b6009819055504283600501819055506000611b356002611b276103e8611b1960648861365590919063ffffffff16565b6136db90919063ffffffff16565b6136db90919063ffffffff16565b905060008054906101000a900473ffffffffffffffffffffffffffffffffffffffff1673ffffffffffffffffffffffffffffffffffffffff1663a9059cbb600d60009054906101000a900473ffffffffffffffffffffffffffffffffffffffff16836040518363ffffffff1660e01b8152600401808373ffffffffffffffffffffffffffffffffffffffff16815260200182815260200192505050602060405180830381600087803b158015611bea57600080fd5b505af1158015611bfe573d6000803e3d6000fd5b505050506040513d6020811015611c1457600080fd5b81019080805190602001909291905050505060008054906101000a900473ffffffffffffffffffffffffffffffffffffffff1673ffffffffffffffffffffffffffffffffffffffff1663a9059cbb600b60009054906101000a900473ffffffffffffffffffffffffffffffffffffffff16836040518363ffffffff1660e01b8152600401808373ffffffffffffffffffffffffffffffffffffffff16815260200182815260200192505050602060405180830381600087803b158015611cd957600080fd5b505af1158015611ced573d6000803e3d6000fd5b505050506040513d6020811015611d0357600080fd5b8101908080519060200190929190505050503373ffffffffffffffffffffffffffffffffffffffff167f2899dc8c12def1caa9accb64257cf2fd9f960f21bb27a560a757eae3c2ec43c1826040518082815260200191505060405180910390a23373ffffffffffffffffffffffffffffffffffffffff167ff218ee5b0fa9dbbcd9731866559aa37dc58548988accdbbb5729cb5beced6f03846040518082815260200191505060405180910390a260019550505050505090565b600080611df6680ad78ebc5ac6200000611de86001611dda6111f6565b61365590919063ffffffff16565b6136db90919063ffffffff16565b90506050811115611e0657605090505b8091505090565b600c60009054906101000a900473ffffffffffffffffffffffffffffffffffffffff1681565b6703782dace9d90000811015611eb1576040517f08c379a00000000000000000000000000000000000000000000000000000000081526004018080602001828103825260148152602001807f696e73756666696369656e74206465706f73697400000000000000000000000081525060200191505060405180910390fd5b60008054906101000a900473ffffffffffffffffffffffffffffffffffffffff1673ffffffffffffffffffffffffffffffffffffffff166323b872dd3330846040518463ffffffff1660e01b8152600401808473ffffffffffffffffffffffffffffffffffffffff1681526020018373ffffffffffffffffffffffffffffffffffffffff1681526020018281526020019350505050602060405180830381600087803b158015611f6057600080fd5b505af1158015611f74573d6000803e3d6000fd5b505050506040513d6020811015611f8a57600080fd5b8101908080519060200190929190505050506000611fc66103e8611fb860648561365590919063ffffffff16565b6136db90919063ffffffff16565b905060008054906101000a900473ffffffffffffffffffffffffffffffffffffffff1673ffffffffffffffffffffffffffffffffffffffff1663a9059cbb600a60009054906101000a900473ffffffffffffffffffffffffffffffffffffffff166120506103e861204261012c8761365590919063ffffffff16565b6136db90919063ffffffff16565b6040518363ffffffff1660e01b8152600401808373ffffffffffffffffffffffffffffffffffffffff16815260200182815260200192505050602060405180830381600087803b1580156120a357600080fd5b505af11580156120b7573d6000803e3d6000fd5b505050506040513d60208110156120cd57600080fd5b81019080805190602001909291905050505060008054906101000a900473ffffffffffffffffffffffffffffffffffffffff1673ffffffffffffffffffffffffffffffffffffffff1663a9059cbb600d60009054906101000a900473ffffffffffffffffffffffffffffffffffffffff166121676103e861215961012c8761365590919063ffffffff16565b6136db90919063ffffffff16565b6040518363ffffffff1660e01b8152600401808373ffffffffffffffffffffffffffffffffffffffff16815260200182815260200192505050602060405180830381600087803b1580156121ba57600080fd5b505af11580156121ce573d6000803e3d6000fd5b505050506040513d60208110156121e457600080fd5b81019080805190602001909291905050505060008054906101000a900473ffffffffffffffffffffffffffffffffffffffff1673ffffffffffffffffffffffffffffffffffffffff1663a9059cbb600b60009054906101000a900473ffffffffffffffffffffffffffffffffffffffff1661227d6103e861226f60c88761365590919063ffffffff16565b6136db90919063ffffffff16565b6040518363ffffffff1660e01b8152600401808373ffffffffffffffffffffffffffffffffffffffff16815260200182815260200192505050602060405180830381600087803b1580156122d057600080fd5b505af11580156122e4573d6000803e3d6000fd5b505050506040513d60208110156122fa57600080fd5b81019080805190602001909291905050505060008054906101000a900473ffffffffffffffffffffffffffffffffffffffff1673ffffffffffffffffffffffffffffffffffffffff1663a9059cbb600c60009054906101000a900473ffffffffffffffffffffffffffffffffffffffff166123936103e861238560c88761365590919063ffffffff16565b6136db90919063ffffffff16565b6040518363ffffffff1660e01b8152600401808373ffffffffffffffffffffffffffffffffffffffff16815260200182815260200192505050602060405180830381600087803b1580156123e657600080fd5b505af11580156123fa573d6000803e3d6000fd5b505050506040513d602081101561241057600080fd5b81019080805190602001909291905050505060008054906101000a900473ffffffffffffffffffffffffffffffffffffffff1673ffffffffffffffffffffffffffffffffffffffff1663a9059cbb600e60009054906101000a900473ffffffffffffffffffffffffffffffffffffffff166124a96103e861249b60148861365590919063ffffffff16565b6136db90919063ffffffff16565b6040518363ffffffff1660e01b8152600401808373ffffffffffffffffffffffffffffffffffffffff16815260200182815260200192505050602060405180830381600087803b1580156124fc57600080fd5b505af1158015612510573d6000803e3d6000fd5b505050506040513d602081101561252657600080fd5b8101908080519060200190929190505050503373ffffffffffffffffffffffffffffffffffffffff167f2899dc8c12def1caa9accb64257cf2fd9f960f21bb27a560a757eae3c2ec43c16125ab6103e861259d61258e6014606461349390919063ffffffff16565b8761365590919063ffffffff16565b6136db90919063ffffffff16565b6040518082815260200191505060405180910390a26000600f60003373ffffffffffffffffffffffffffffffffffffffff1673ffffffffffffffffffffffffffffffffffffffff1681526020019081526020016000209050600073ffffffffffffffffffffffffffffffffffffffff168160090160009054906101000a900473ffffffffffffffffffffffffffffffffffffffff1673ffffffffffffffffffffffffffffffffffffffff161480156126a557506000600f60008673ffffffffffffffffffffffffffffffffffffffff1673ffffffffffffffffffffffffffffffffffffffff16815260200190815260200160002060010154115b80156126dd57503373ffffffffffffffffffffffffffffffffffffffff168473ffffffffffffffffffffffffffffffffffffffff1614155b1561272657838160090160006101000a81548173ffffffffffffffffffffffffffffffffffffffff021916908373ffffffffffffffffffffffffffffffffffffffff1602179055505b600073ffffffffffffffffffffffffffffffffffffffff168160090160009054906101000a900473ffffffffffffffffffffffffffffffffffffffff1673ffffffffffffffffffffffffffffffffffffffff1614612a635760008160090160009054906101000a900473ffffffffffffffffffffffffffffffffffffffff16905060005b6003811015612a6057600073ffffffffffffffffffffffffffffffffffffffff168273ffffffffffffffffffffffffffffffffffffffff1614612a4e57600061281e6103e8612810600185600381106127ff57fe5b01548961365590919063ffffffff16565b6136db90919063ffffffff16565b905061287581600f60008673ffffffffffffffffffffffffffffffffffffffff1673ffffffffffffffffffffffffffffffffffffffff1681526020019081526020016000206003015461349390919063ffffffff16565b600f60008573ffffffffffffffffffffffffffffffffffffffff1673ffffffffffffffffffffffffffffffffffffffff1681526020019081526020016000206003018190555060008460010154141561297d5761292a6001600f60008673ffffffffffffffffffffffffffffffffffffffff1673ffffffffffffffffffffffffffffffffffffffff168152602001908152602001600020600601846003811061291a57fe5b015461349390919063ffffffff16565b600f60008573ffffffffffffffffffffffffffffffffffffffff1673ffffffffffffffffffffffffffffffffffffffff168152602001908152602001600020600601836003811061297757fe5b01819055505b813373ffffffffffffffffffffffffffffffffffffffff168473ffffffffffffffffffffffffffffffffffffffff167fd41f7e766eebcc7ff42b11ac8691bdf864db4afc0c55e71d629d54edce460d98846040518082815260200191505060405180910390a4600f60008473ffffffffffffffffffffffffffffffffffffffff1673ffffffffffffffffffffffffffffffffffffffff16815260200190815260200160002060090160009054906101000a900473ffffffffffffffffffffffffffffffffffffffff16925050612a53565b612a60565b80806001019150506127aa565b50505b600081600101541415612ae357428160040181905550612a8f600160055461349390919063ffffffff16565b6005819055507f9fd565cd14c3c391679eb0cad12a14dcf7534e9d3462bcb9b67a098a9bbbc24a33604051808273ffffffffffffffffffffffffffffffffffffffff16815260200191505060405180910390a15b612aeb613efb565b8381600001818152505083816040018181525050428160600181815250508082600001600084600101548152602001908152602001600020600082015181600001556020820151816001015560408201518160020155606082015181600301559050508160010160008154809291906001019190505550612b778460065461349390919063ffffffff16565b600681905550612b93600160085461349390919063ffffffff16565b6008819055503373ffffffffffffffffffffffffffffffffffffffff167f2cb77763bc1e8490c1a904905c4d74b4269919aca114464f4bb4d911e60de364856040518082815260200191505060405180910390a25050505050565b60008060008060008060008060008060008060006005549c506006549b506009549a5060075499506008549850612c236111f6565b975060509650612c31611dbd565b9550612c3b61119b565b9450612c6386612c5587605061349390919063ffffffff16565b61349390919063ffffffff16565b93506107d092506703782dace9d900009150612c9d603c612c8f6004544261344990919063ffffffff16565b6136db90919063ffffffff16565b9050909192939495969798999a9b9c565b600080600080600080612cbf613f23565b600f60008a73ffffffffffffffffffffffffffffffffffffffff1673ffffffffffffffffffffffffffffffffffffffff1681526020019081526020016000206040518060e0016040529081600182015481526020016002820154815260200160038201548152602001600482015481526020016005820154815260200160068201600380602002604051908101604052809291908260038015612d77576020028201915b815481526020019060010190808311612d63575b505050505081526020016009820160009054906101000a900473ffffffffffffffffffffffffffffffffffffffff1673ffffffffffffffffffffffffffffffffffffffff1673ffffffffffffffffffffffffffffffffffffffff16815250509050612de0613efb565b600f60008b73ffffffffffffffffffffffffffffffffffffffff1673ffffffffffffffffffffffffffffffffffffffff16815260200190815260200160002060000160008a81526020019081526020016000206040518060800160405290816000820154815260200160018201548152602001600282015481526020016003820154815250509050806040015197508060000151965080602001519550612e8681613725565b945081602001519350612e988161351b565b925050509295509295509295565b600080612fda612fcb600f60003373ffffffffffffffffffffffffffffffffffffffff1673ffffffffffffffffffffffffffffffffffffffff1681526020019081526020016000206040518060e0016040529081600182015481526020016002820154815260200160038201548152602001600482015481526020016005820154815260200160068201600380602002604051908101604052809291908260038015612f67576020028201915b815481526020019060010190808311612f53575b505050505081526020016009820160009054906101000a900473ffffffffffffffffffffffffffffffffffffffff1673ffffffffffffffffffffffffffffffffffffffff1673ffffffffffffffffffffffffffffffffffffffff1681525050613409565b4261344990919063ffffffff16565b9050603c811115612fef576001915050612ff1565b505b90565b600a60009054906101000a900473ffffffffffffffffffffffffffffffffffffffff1681565b6000613025826112c0565b156130d6576000600f60008473ffffffffffffffffffffffffffffffffffffffff1673ffffffffffffffffffffffffffffffffffffffff1681526020019081526020016000206004015490508060045411156130815760045490505b60006130bc60056130ae603c6130a0864261344990919063ffffffff16565b6136db90919063ffffffff16565b61365590919063ffffffff16565b9050603c8111156130cc57603c90505b80925050506130d7565b5b919050565b60008054906101000a900473ffffffffffffffffffffffffffffffffffffffff1681565b600080613222600f60008573ffffffffffffffffffffffffffffffffffffffff1673ffffffffffffffffffffffffffffffffffffffff1681526020019081526020016000206040518060e00160405290816001820154815260200160028201548152602001600382015481526020016004820154815260200160058201548152602001600682016003806020026040519081016040528092919082600380156131be576020028201915b8154815260200190600101908083116131aa575b505050505081526020016009820160009054906101000a900473ffffffffffffffffffffffffffffffffffffffff1673ffffffffffffffffffffffffffffffffffffffff1673ffffffffffffffffffffffffffffffffffffffff1681525050613409565b90508060045411156132345760045490505b613248603c8261349390919063ffffffff16565b915050919050565b6000806000806000806000806000806000613269613f7c565b613271613f23565b600f60008f73ffffffffffffffffffffffffffffffffffffffff1673ffffffffffffffffffffffffffffffffffffffff1681526020019081526020016000206040518060e0016040529081600182015481526020016002820154815260200160038201548152602001600482015481526020016005820154815260200160068201600380602002604051908101604052809291908260038015613329576020028201915b815481526020019060010190808311613315575b505050505081526020016009820160009054906101000a900473ffffffffffffffffffffffffffffffffffffffff1673ffffffffffffffffffffffffffffffffffffffff1673ffffffffffffffffffffffffffffffffffffffff168152505090506133938e61374c565b9c5061339e8e613906565b9b506133a98e613100565b96506133b48e613ac0565b97506133bf8e61301a565b98508060200151995080604001519a50806000015195506133df81613409565b9450600081600001511193508060c0015192508060a0015191505091939597999b5091939597999b565b6000808260800151836060015111156134285782606001519050613430565b826080015190505b8060045411156134405760045490505b80915050919050565b600061348b83836040518060400160405280601e81526020017f536166654d6174683a207375627472616374696f6e206f766572666c6f770000815250613cfd565b905092915050565b600080828401905083811015613511576040517f08c379a000000000000000000000000000000000000000000000000000000000815260040180806020018281038252601b8152602001807f536166654d6174683a206164646974696f6e206f766572666c6f77000000000081525060200191505060405180910390fd5b8091505092915050565b600061354a6103e861353c6107d0856040015161365590919063ffffffff16565b6136db90919063ffffffff16565b9050919050565b600080600061357161356287613dbd565b8661349390919063ffffffff16565b9050600061357e87613725565b905061358985613409565b81101561359c5761359985613409565b90505b6135fe6135b5603c6103e861365590919063ffffffff16565b6135f06135dd6135ce854261344990919063ffffffff16565b8661365590919063ffffffff16565b8a6000015161365590919063ffffffff16565b6136db90919063ffffffff16565b92506136098761351b565b61362084896020015161349390919063ffffffff16565b11156136485761364587602001516136378961351b565b61344990919063ffffffff16565b92505b8293505050509392505050565b60008083141561366857600090506136d5565b600082840290508284828161367957fe5b04146136d0576040517f08c379a0000000000000000000000000000000000000000000000000000000008152600401808060200182810382526021815260200180613f9f6021913960400191505060405180910390fd5b809150505b92915050565b600061371d83836040518060400160405280601a81526020017f536166654d6174683a206469766973696f6e206279207a65726f000000000000815250613e35565b905092915050565b60008160600151600454111561373f576004549050613747565b816060015190505b919050565b6000613756613f23565b600f60008473ffffffffffffffffffffffffffffffffffffffff1673ffffffffffffffffffffffffffffffffffffffff1681526020019081526020016000206040518060e001604052908160018201548152602001600282015481526020016003820154815260200160048201548152602001600582015481526020016006820160038060200260405190810160405280929190826003801561380e576020028201915b8154815260200190600101908083116137fa575b505050505081526020016009820160009054906101000a900473ffffffffffffffffffffffffffffffffffffffff1673ffffffffffffffffffffffffffffffffffffffff1673ffffffffffffffffffffffffffffffffffffffff16815250509050600080600090505b82600001518110156138fb576138ec600f60008773ffffffffffffffffffffffffffffffffffffffff1673ffffffffffffffffffffffffffffffffffffffff1681526020019081526020016000206000016000838152602001908152602001600020600101548361349390919063ffffffff16565b91508080600101915050613877565b508092505050919050565b6000613910613f23565b600f60008473ffffffffffffffffffffffffffffffffffffffff1673ffffffffffffffffffffffffffffffffffffffff1681526020019081526020016000206040518060e00160405290816001820154815260200160028201548152602001600382015481526020016004820154815260200160058201548152602001600682016003806020026040519081016040528092919082600380156139c8576020028201915b8154815260200190600101908083116139b4575b505050505081526020016009820160009054906101000a900473ffffffffffffffffffffffffffffffffffffffff1673ffffffffffffffffffffffffffffffffffffffff1673ffffffffffffffffffffffffffffffffffffffff16815250509050600080600090505b8260000151811015613ab557613aa6600f60008773ffffffffffffffffffffffffffffffffffffffff1673ffffffffffffffffffffffffffffffffffffffff1681526020019081526020016000206000016000838152602001908152602001600020600001548361349390919063ffffffff16565b91508080600101915050613a31565b508092505050919050565b6000613aca613f23565b600f60008473ffffffffffffffffffffffffffffffffffffffff1673ffffffffffffffffffffffffffffffffffffffff1681526020019081526020016000206040518060e0016040529081600182015481526020016002820154815260200160038201548152602001600482015481526020016005820154815260200160068201600380602002604051908101604052809291908260038015613b82576020028201915b815481526020019060010190808311613b6e575b505050505081526020016009820160009054906101000a900473ffffffffffffffffffffffffffffffffffffffff1673ffffffffffffffffffffffffffffffffffffffff1673ffffffffffffffffffffffffffffffffffffffff16815250509050600080613c08613bf1611dbd565b613bfa8761301a565b61349390919063ffffffff16565b905060005b8360000151811015613cf157613c21613efb565b600f60008873ffffffffffffffffffffffffffffffffffffffff1673ffffffffffffffffffffffffffffffffffffffff16815260200190815260200160002060000160008381526020019081526020016000206040518060800160405290816000820154815260200160018201548152602001600282015481526020016003820154815250509050613cb28161351b565b81602001511015613ce3576000613cca828588613551565b9050613cdf818661349390919063ffffffff16565b9450505b508080600101915050613c0d565b50819350505050919050565b6000838311158290613daa576040517f08c379a00000000000000000000000000000000000000000000000000000000081526004018080602001828103825283818151815260200191508051906020019080838360005b83811015613d6f578082015181840152602081019050613d54565b50505050905090810190601f168015613d9c5780820380516001836020036101000a031916815260200191505b509250505060405180910390fd5b5060008385039050809150509392505050565b600080613df0603c613de2600454613dd487613725565b61344990919063ffffffff16565b6136db90919063ffffffff16565b90506000613e08600a8361365590919063ffffffff16565b90506050811115613e1857605090505b613e2c81605061349390919063ffffffff16565b92505050919050565b60008083118290613ee1576040517f08c379a00000000000000000000000000000000000000000000000000000000081526004018080602001828103825283818151815260200191508051906020019080838360005b83811015613ea6578082015181840152602081019050613e8b565b50505050905090810190601f168015613ed35780820380516001836020036101000a031916815260200191505b509250505060405180910390fd5b506000838581613eed57fe5b049050809150509392505050565b6040518060800160405280600081526020016000815260200160008152602001600081525090565b6040518060e001604052806000815260200160008152602001600081526020016000815260200160008152602001613f59613f7c565b8152602001600073ffffffffffffffffffffffffffffffffffffffff1681525090565b604051806060016040528060039060208202803683378082019150509050509056fe536166654d6174683a206d756c7469706c69636174696f6e206f766572666c6f77a26469706673582212208534455eda9c377b09482f1281d7d844a5623f7e73922e9dcbe9299fd57f367f64736f6c634300060c0033",
  "immutableReferences": {},
  "source": "// SPDX-License-Identifier: MIT\npragma solidity ^0.6.12;\nimport \"./CAKErocket_state.sol\";\n\ncontract BNBrocket is BNBrocket_state{\n\tevent Newbie(address user);\n\tevent NewDeposit(address indexed user, uint256 amount);\n\tevent Withdrawn(address indexed user, uint256 amount);\n\tevent RefBonus(address indexed referrer, address indexed referral, uint256 indexed level, uint256 amount);\n\tevent FeePayed(address indexed user, uint256 totalAmount);\n\tevent Reinvestment(address indexed user, uint256 amount);\n\n\tconstructor(address payable devAddr, address payable SecAddr, address payable markAddrs, address payable projectAddrs,\n\t\taddress payable partAddr, IBEP20 token_) public {\n\t\trequire(!isContract(devAddr) && !isContract(SecAddr) && !isContract(partAddr) && !isContract(markAddrs));\n\t\tsecureAddress = SecAddr;\n\t\tdevAddress = devAddr;\n\t\tprojectAdress =  projectAddrs;\n\t\tpartnerAdress = partAddr;\n\t\tmarketingAdress = markAddrs;\n\t\ttoken = token_;\n\t\temit Paused(msg.sender);\n\t}\n\n\tmodifier checkUser_() {\n\t\tuint256 check;\n\t\tcheck = block.timestamp.sub(getlastActionDate(users[msg.sender]));\n\t\trequire(check > TIME_STEP,'try again later');\n\t\t_;\n\t}\n\n\tfunction checkUser() external view returns (bool){\n\t\tuint256 check;\n\t\tcheck = block.timestamp.sub(getlastActionDate(users[msg.sender]));\n\t\tif(check > TIME_STEP)\n\t\treturn true;\n\t}\n\n\tfunction invest(address payable referrer, uint256 investAmt) external {\n\t\trequire(investAmt >= INVEST_MIN_AMOUNT, 'insufficient deposit');\n\n\t\ttoken.transferFrom(msg.sender,address(this),investAmt);\n\n\t\tuint256 investFee = (investAmt.mul(INVEST_FEE)).div(PERCENTS_DIVIDER);\n\n\t\ttoken.transfer(partnerAdress,(investFee.mul(300)).div(PERCENTS_DIVIDER));\n\t\ttoken.transfer(devAddress,(investFee.mul(300)).div(PERCENTS_DIVIDER));\n\t\ttoken.transfer(marketingAdress,(investFee.mul(200)).div(PERCENTS_DIVIDER));\n\t\ttoken.transfer(projectAdress,(investFee.mul(200)).div(PERCENTS_DIVIDER));\n\t\ttoken.transfer(secureAddress,(investAmt.mul(SECURE_FEE)).div(PERCENTS_DIVIDER));\n\n\t\temit FeePayed(msg.sender, (investAmt.mul(INVEST_FEE.add(SECURE_FEE))).div(PERCENTS_DIVIDER));\n\n\t\tUser storage user = users[msg.sender];\n\n\t\tif (user.referrer == address(0) && users[referrer].depositsLength > 0 && referrer != msg.sender) {\n\t\t\tuser.referrer = referrer;\n\t\t}\n\n\t\tif (user.referrer != address(0)) {\n\t\t\taddress payable upline = user.referrer;\n\t\t\tfor(uint256 i = 0; i < REFERRAL_PERCENTS.length; i++) {\n\t\t\t\tif(upline != address(0)) {\n\t\t\t\t\tuint256 amount = (investAmt.mul(REFERRAL_PERCENTS[i])).div(PERCENTS_DIVIDER);\n\t\t\t\t\tusers[upline].bonus = users[upline].bonus.add(amount);\n\t\t\t\t\tif(user.depositsLength == 0)\n\t\t\t\t\tusers[upline].referrerCount[i] = users[upline].referrerCount[i].add(1);\n\t\t\t\t\temit RefBonus(upline, msg.sender, i, amount);\n\t\t\t\t\tupline = users[upline].referrer;\n\t\t\t\t} else break;\n\t\t\t}\n\t\t}\n\n\t\tif (user.depositsLength == 0) {\n\t\t\tuser.checkpoint = block.timestamp;\n\t\t\ttotalUsers = totalUsers.add(1);\n\t\t\temit Newbie(msg.sender);\n\t\t}\n\n\t\tDeposit memory newDeposit;\n\t\tnewDeposit.amount = investAmt;\n\t\tnewDeposit.initAmount = investAmt;\n\t\tnewDeposit.start = block.timestamp;\n\t\tuser.deposits[user.depositsLength] = newDeposit;\n\t\tuser.depositsLength++;\n\n\t\ttotalInvested = totalInvested.add(investAmt);\n\t\ttotalDeposits = totalDeposits.add(1);\n\t\temit NewDeposit(msg.sender, investAmt);\n\t}\n\n\tfunction withdraw() external whenNotPaused checkUser_ returns(bool) {\n\t\trequire(isActive(msg.sender), \"Dont is User\");\n\t\tUser storage user = users[msg.sender];\n\n\t\tuint256 totalAmount;\n\t\tuint256 userPercentRate = getUserholdRate(msg.sender).add(getBonusPoolPercent());\n\n\t\tfor(uint256 i = 0; i < user.depositsLength; i++) {\n\t\t\tuint256 dividends;\n\t\t\tDeposit memory deposit = user.deposits[i];\n\n\t\t\tif(deposit.withdrawn < getMaxprofit(deposit)) {\n\t\t\t\tdividends = calculateDividents(deposit, userPercentRate, user);\n\n\t\t\t\tif(dividends > 0) {\n\t\t\t\t\tuser.deposits[i].withdrawn = user.deposits[i].withdrawn.add(dividends); /// changing of storage data\n\t\t\t\t\ttotalAmount = totalAmount.add(dividends);\n\t\t\t\t}\n\t\t\t}\n\t\t}\n\n\t\tuint256 referralBonus = user.bonus;\n\t\tif(referralBonus > 0) {\n\t\t\ttotalAmount = totalAmount.add(referralBonus);\n\t\t\tdelete user.bonus;\n\t\t}\n\n\t\trequire(totalAmount >= MIN_WITHDRAW, \"User has no dividends\");\n\n\t\tuint256 contractBalance = getContractBalance();\n\t\tif(contractBalance < totalAmount) {\n\t\t\ttotalAmount = contractBalance;\n\t\t}\n\n\t\tuser.checkpoint = block.timestamp;\n\n\t\tuint256 fee = (totalAmount.mul(WITHDRAW_FEE_PERCENT)).div(PERCENTS_DIVIDER);\n\n\t\tuint256 toTransfer = totalAmount.sub(fee);\n\n\t\ttotalWithdrawn = totalWithdrawn.add(totalAmount);\n\n\t\ttoken.transfer(secureAddress,fee);\n\n\t\ttoken.transfer(msg.sender,toTransfer);\n\n\n\t\temit FeePayed(msg.sender, fee);\n\t\temit Withdrawn(msg.sender, totalAmount);\n\t\treturn true;\n\n\t}\n\n\tfunction reinvestment() external whenNotPaused checkUser_ returns(bool) {\n\t\trequire(isActive(msg.sender), \"Dont is User\");\n\t\tUser storage user = users[msg.sender];\n\n\t\tuint256 totalDividends;\n\n\t\tuint256 userPercentRate = getUserholdRate(msg.sender).add(getBonusPoolPercent());\n\n\t\tfor(uint256 i = 0; i < user.depositsLength; i++) {\n\t\t\tuint256 dividends;\n\t\t\tDeposit memory deposit = user.deposits[i];\n\n\t\t\tif(deposit.withdrawn < getMaxprofit(deposit)) {\n\t\t\t\tdividends = calculateDividents(deposit, userPercentRate, user);\n\n\t\t\t\tif(dividends > 0) {\n\t\t\t\t\tuser.deposits[i].amount = user.deposits[i].amount.add(dividends);\n\t\t\t\t\ttotalDividends = totalDividends.add(dividends);\n\t\t\t\t}\n\t\t\t}\n\t\t}\n\n\t\trequire(totalDividends > 0, \"User has no dividends\");\n\n\t\tuser.reinvested = user.reinvested.add(totalDividends);\n\t\ttotalReinvested = totalReinvested.add(totalDividends);\n\t\tuser.lasReinvest = block.timestamp;\n\n\t\tuint256 fee = totalDividends.mul(INVEST_FEE).div(PERCENTS_DIVIDER).div(2);\n\t\ttoken.transfer(devAddress, fee);\n\t\ttoken.transfer(marketingAdress, fee);\n\t\temit FeePayed(msg.sender, fee);\n\t\temit Reinvestment(msg.sender, totalDividends);\n\t\treturn true;\n\t}\n\n\tfunction getNextUserAssignment(address userAddress) public view returns (uint256) {\n\t\tuint256 checkpoint = getlastActionDate(users[userAddress]);\n\t\tif(initDate > checkpoint)\n\t\t\tcheckpoint = initDate;\n\t\treturn checkpoint.add(TIME_STEP);\n\t}\n\n\tfunction getUserholdRate(address userAddress) public view returns (uint256) {\n\n\t\tif(isActive(userAddress)) {\n\t\t\t\tuint256 checkpoint = users[userAddress].checkpoint;\n\t\t\t\tif(initDate > checkpoint)\n\t\t\t\t\tcheckpoint = initDate;\n\t\t\t\tuint256 holdProfit = ((block.timestamp.sub(checkpoint)).div(TIME_STEP)).mul(HOLD_PERCENT);\n\t\t\t\tif(holdProfit > MAX_HOLD_PERCENT)\n\t\t\t\t\tholdProfit = MAX_HOLD_PERCENT;\n\t\t\t\treturn holdProfit;\n\t\t}\n\t}\n\n\tfunction getPublicData() external view returns(uint256 totalUsers_,\n\t\tuint256 totalInvested_,\n\t\tuint256 totalReinvested_,\n\t\tuint256 totalWithdrawn_,\n\t\tuint256 totalDeposits_,\n\t\tuint256 balance_,\n\t\tuint256 roidBase,\n\t\tuint256 bonusPool,\n\t\tuint256 comunityBonus,\n\t\tuint256 currentRoi,\n\t\tuint256 maxProfit,\n\t\tuint256 minDeposit,\n\t\tuint256 daysFormdeploy\n\t\t) {\n\t\ttotalUsers_ = totalUsers;\n\t\ttotalInvested_ = totalInvested;\n\t\ttotalReinvested_ = totalReinvested;\n\t\ttotalWithdrawn_ = totalWithdrawn;\n\t\ttotalDeposits_ = totalDeposits;\n\t\tbalance_ = getContractBalance();\n\t\troidBase = ROI_BASE;\n\t\tbonusPool = getBonusPoolPercent();\n\t\tcomunityBonus = getComunityBonus();\n\t\tcurrentRoi = ROI_BASE.add(comunityBonus).add(bonusPool);\n\t\tmaxProfit = MAX_PROFIT;\n\t\tminDeposit = INVEST_MIN_AMOUNT;\n\t\tdaysFormdeploy = (block.timestamp.sub(initDate)).div(TIME_STEP);\n\t}\n\n\tfunction getUserData(address userAddress) external view returns(uint256 totalWithdrawn_,\n\t\tuint256 totalDeposits_,\n\t\tuint256 totalBonus_,\n\t\tuint256 totalreinvest_,\n\t\tuint256 hold_,\n\t\tuint256 balance_,\n\t\tuint256 nextAssignment_,\n\t\tuint256 amountOfDeposits,\n\t\tuint256 checkpoint,\n\t\tbool isUser_,\n\t\taddress referrer_,\n\t\tuint256[3] memory referrerCount_\n\t){\n\t\tUser memory user = users[userAddress];\n\t\ttotalWithdrawn_ = getUserTotalWithdrawn(userAddress);\n\t\ttotalDeposits_ = getUserTotalDeposits(userAddress);\n\t\tnextAssignment_ = getNextUserAssignment(userAddress);\n\t\tbalance_ = getUserDividends(userAddress);\n\t\thold_ = getUserholdRate(userAddress);\n\t\ttotalreinvest_ = user.reinvested;\n\t\ttotalBonus_ = user.bonus;\n\t\tamountOfDeposits = user.depositsLength;\n\t\tcheckpoint = getlastActionDate(user);\n\t\tisUser_ = user.depositsLength > 0;\n\t\treferrer_ = user.referrer;\n\t\treferrerCount_ = user.referrerCount;\n\n\t}\n\n\tfunction getContractBalance() public view returns (uint256) {\n\t\treturn token.balanceOf(address(this));\n\t}\n\n\tfunction getUserDividends(address userAddress) internal view returns (uint256) {\n\t\tUser memory user = users[userAddress];\n\n\t\tuint256 totalDividends;\n\t\tuint256 userPercentRate = getUserholdRate(userAddress).add(getBonusPoolPercent());\n\n\t\tfor(uint256 i = 0; i < user.depositsLength; i++) {\n\n\t\t\tDeposit memory deposit = users[userAddress].deposits[i];\n\n\t\t\tif(deposit.withdrawn < getMaxprofit(deposit)) {\n\t\t\t\tuint256 dividends = calculateDividents(deposit, userPercentRate, user);\n\t\t\t\ttotalDividends = totalDividends.add(dividends);\n\t\t\t}\n\n\t\t}\n\n\t\treturn totalDividends;\n\t}\n\n\tfunction calculateDividents(Deposit memory deposit, uint256 userPercentRate, User memory user) internal view returns (uint256) {\n\t\tuint256 dividends;\n\t\tuint256\tdepositPercentRate = userPercentRate.add(getDepositRoi(deposit));\n\n\t\tuint256 checkDate = getDepsitStartDate(deposit);\n\n\t\tif(checkDate < getlastActionDate(user)) {\n\t\t\tcheckDate = getlastActionDate(user);\n\t\t}\n\n\t\tdividends = (deposit.amount\n\t\t.mul(depositPercentRate.mul(block.timestamp.sub(checkDate))))\n\t\t.div((PERCENTS_DIVIDER).mul(TIME_STEP))\n\t\t;\n\n\t\tif(deposit.withdrawn.add(dividends) > getMaxprofit(deposit)) {\n\t\t\tdividends = getMaxprofit(deposit).sub(deposit.withdrawn);\n\t\t}\n\t\treturn dividends;\n\n\t}\n\n\tfunction isActive(address userAddress) public view returns (bool) {\n\t\tUser memory user = users[userAddress];\n\n\t\tif (user.depositsLength > 0) {\n\t\t\tif(users[userAddress].deposits[user.depositsLength-1].withdrawn < getMaxprofit(users[userAddress].deposits[user.depositsLength-1])) {\n\t\t\t\treturn true;\n\t\t\t}\n\t\t}\n\t}\n\n\tfunction getUserDepositInfo(address userAddress, uint256 index) external view returns(\n\t\tuint256 initAmount_,\n\t\tuint256 amount_,\n\t\tuint256 withdrawn_,\n\t\tuint256 timeStart_,\n\t\tuint256 reinvested_,\n\t\tuint256 maxProfit\n\t\t) {\n\t\tUser memory user = users[userAddress];\n\t\tDeposit memory deposit = users[userAddress].deposits[index];\n\t\tinitAmount_ = deposit.initAmount;\n\t\tamount_ = deposit.amount;\n\t\twithdrawn_ = deposit.withdrawn;\n\t\ttimeStart_= getDepsitStartDate(deposit);\n\t\treinvested_ = user.reinvested;\n\t\tmaxProfit = getMaxprofit(deposit);\n\t}\n\n\n\tfunction getUserTotalDeposits(address userAddress) internal view returns(uint256) {\n\t\tUser memory user = users[userAddress];\n\t\tuint256 amount;\n\t\tfor(uint256 i = 0; i < user.depositsLength; i++) {\n\t\t\tamount = amount.add(users[userAddress].deposits[i].amount);\n\t\t}\n\t\treturn amount;\n\t}\n\n\tfunction getUserTotalWithdrawn(address userAddress) internal view returns(uint256) {\n\t\tUser memory user = users[userAddress];\n\n\t\tuint256 amount;\n\n\t\tfor(uint256 i = 0; i < user.depositsLength; i++) {\n\t\t\tamount = amount.add(users[userAddress].deposits[i].withdrawn);\n\t\t}\n\t\treturn amount;\n\t}\n\n\tfunction getlastActionDate(User memory user) internal view returns(uint256) {\n\t\tuint256 checkpoint;\n\t\tif(user.checkpoint > user.lasReinvest) {\n\t\t\tcheckpoint = user.checkpoint;\n\t\t} else {\n\t\t\tcheckpoint = user.lasReinvest;\n\t\t}\n\n\t\tif(initDate > checkpoint)\n\t\t\tcheckpoint = initDate;\n\n\t\treturn checkpoint;\n\t}\n\n\tfunction isContract(address addr) internal view returns (bool) {\n\t\tuint256 size;\n\t\tassembly { size := extcodesize(addr) }\n\t\treturn size > 0;\n\t}\n\n\tfunction getComunityBonus() public view returns(uint256) {\n\t\tuint256 delta = (block.timestamp.sub(initDate)).div(TIME_STEP);\n\t\tuint256 bonus = delta.mul(COMUNITY_BONUS);\n\t\tif(bonus > MAX_COMUNITY_BONUS) {\n\t\t\tbonus = MAX_COMUNITY_BONUS;\n\t\t}\n\t\treturn bonus;\n\t}\n\n\tfunction getDepositRoi(Deposit memory ndeposit) private view returns(uint256) {\n\t\tuint256 delta = (getDepsitStartDate(ndeposit).sub(initDate)).div(TIME_STEP);\n\t\tuint256 bonus = delta.mul(COMUNITY_BONUS);\n\t\tif(bonus > MAX_COMUNITY_BONUS) {\n\t\t\tbonus = MAX_COMUNITY_BONUS;\n\t\t}\n\t\treturn ROI_BASE.add(bonus);\n\t}\n\n\tfunction getDepsitStartDate(Deposit memory ndeposit) private view returns(uint256) {\n\t\tif(initDate > ndeposit.start) {\n\t\t\treturn initDate;\n\t\t} else {\n\t\t\treturn ndeposit.start;\n\t\t}\n\t}\n\n\tfunction getBonusPoolPercent() public view returns(uint256) {\n\t\tuint256 pool;\n\t\tpool = (getContractBalance().mul(BONUS_POOL)).div(POOL_DIVIDER);\n\t\tif(pool > MAX_BONUS_POOL) {\n\t\t\tpool = MAX_BONUS_POOL;\n\t\t}\n\t\treturn pool;\n\t}\n\n}\n",
  "sourcePath": "/media/Windows/Documentos/proyectos/solidity/Personal/Solidity-Snotrasys/contracts/cakeVaul/contracts/CAKErocket.sol",
  "compiler": {
    "name": "solc",
    "version": "0.6.12+commit.27d51765.Emscripten.clang"
  },
  "schemaVersion": "3.4.1",
  "updatedAt": "2021-05-16T21:54:26.363Z",
  "devdoc": {
    "kind": "dev",
    "methods": {},
    "version": 1
  },
  "userdoc": {
    "kind": "user",
    "methods": {},
    "version": 1
  }
}