{
  "contractName": "CakeVault",
  "abi": [
    {
      "inputs": [
        {
          "internalType": "address payable",
          "name": "devAddr",
          "type": "address"
        },
        {
          "internalType": "address payable",
          "name": "SecAddr",
          "type": "address"
        },
        {
          "internalType": "address payable",
          "name": "markAddrs",
          "type": "address"
        },
        {
          "internalType": "address payable",
          "name": "projectAddrs",
          "type": "address"
        },
        {
          "internalType": "address payable",
          "name": "partAddr",
          "type": "address"
        },
        {
          "internalType": "contract IBEP20",
          "name": "token_",
          "type": "address"
        }
      ],
      "stateMutability": "nonpayable",
      "type": "constructor"
    },
    {
      "anonymous": false,
      "inputs": [
        {
          "indexed": true,
          "internalType": "address",
          "name": "user",
          "type": "address"
        },
        {
          "indexed": false,
          "internalType": "uint256",
          "name": "totalAmount",
          "type": "uint256"
        }
      ],
      "name": "FeePayed",
      "type": "event"
    },
    {
      "anonymous": false,
      "inputs": [
        {
          "indexed": true,
          "internalType": "address",
          "name": "user",
          "type": "address"
        },
        {
          "indexed": false,
          "internalType": "uint256",
          "name": "amount",
          "type": "uint256"
        }
      ],
      "name": "NewDeposit",
      "type": "event"
    },
    {
      "anonymous": false,
      "inputs": [
        {
          "indexed": false,
          "internalType": "address",
          "name": "user",
          "type": "address"
        }
      ],
      "name": "Newbie",
      "type": "event"
    },
    {
      "anonymous": false,
      "inputs": [
        {
          "indexed": false,
          "internalType": "address",
          "name": "account",
          "type": "address"
        }
      ],
      "name": "Paused",
      "type": "event"
    },
    {
      "anonymous": false,
      "inputs": [
        {
          "indexed": true,
          "internalType": "address",
          "name": "referrer",
          "type": "address"
        },
        {
          "indexed": true,
          "internalType": "address",
          "name": "referral",
          "type": "address"
        },
        {
          "indexed": true,
          "internalType": "uint256",
          "name": "level",
          "type": "uint256"
        },
        {
          "indexed": false,
          "internalType": "uint256",
          "name": "amount",
          "type": "uint256"
        }
      ],
      "name": "RefBonus",
      "type": "event"
    },
    {
      "anonymous": false,
      "inputs": [
        {
          "indexed": true,
          "internalType": "address",
          "name": "user",
          "type": "address"
        },
        {
          "indexed": false,
          "internalType": "uint256",
          "name": "amount",
          "type": "uint256"
        }
      ],
      "name": "Reinvestment",
      "type": "event"
    },
    {
      "anonymous": false,
      "inputs": [
        {
          "indexed": false,
          "internalType": "address",
          "name": "account",
          "type": "address"
        }
      ],
      "name": "Unpaused",
      "type": "event"
    },
    {
      "anonymous": false,
      "inputs": [
        {
          "indexed": true,
          "internalType": "address",
          "name": "user",
          "type": "address"
        },
        {
          "indexed": false,
          "internalType": "uint256",
          "name": "amount",
          "type": "uint256"
        }
      ],
      "name": "Withdrawn",
      "type": "event"
    },
    {
      "inputs": [],
      "name": "devAddress",
      "outputs": [
        {
          "internalType": "address",
          "name": "",
          "type": "address"
        }
      ],
      "stateMutability": "view",
      "type": "function"
    },
    {
      "inputs": [],
      "name": "isPaused",
      "outputs": [
        {
          "internalType": "bool",
          "name": "",
          "type": "bool"
        }
      ],
      "stateMutability": "view",
      "type": "function"
    },
    {
      "inputs": [],
      "name": "marketingAdress",
      "outputs": [
        {
          "internalType": "address",
          "name": "",
          "type": "address"
        }
      ],
      "stateMutability": "view",
      "type": "function"
    },
    {
      "inputs": [],
      "name": "partnerAdress",
      "outputs": [
        {
          "internalType": "address",
          "name": "",
          "type": "address"
        }
      ],
      "stateMutability": "view",
      "type": "function"
    },
    {
      "inputs": [],
      "name": "projectAdress",
      "outputs": [
        {
          "internalType": "address",
          "name": "",
          "type": "address"
        }
      ],
      "stateMutability": "view",
      "type": "function"
    },
    {
      "inputs": [],
      "name": "secureAddress",
      "outputs": [
        {
          "internalType": "address",
          "name": "",
          "type": "address"
        }
      ],
      "stateMutability": "view",
      "type": "function"
    },
    {
      "inputs": [],
      "name": "token",
      "outputs": [
        {
          "internalType": "contract IBEP20",
          "name": "",
          "type": "address"
        }
      ],
      "stateMutability": "view",
      "type": "function"
    },
    {
      "inputs": [],
      "name": "unpause",
      "outputs": [],
      "stateMutability": "nonpayable",
      "type": "function"
    },
    {
      "inputs": [
        {
          "internalType": "address",
          "name": "",
          "type": "address"
        }
      ],
      "name": "users",
      "outputs": [
        {
          "internalType": "uint256",
          "name": "depositsLength",
          "type": "uint256"
        },
        {
          "internalType": "uint256",
          "name": "reinvested",
          "type": "uint256"
        },
        {
          "internalType": "uint256",
          "name": "bonus",
          "type": "uint256"
        },
        {
          "internalType": "uint256",
          "name": "checkpoint",
          "type": "uint256"
        },
        {
          "internalType": "uint256",
          "name": "lasReinvest",
          "type": "uint256"
        },
        {
          "internalType": "address payable",
          "name": "referrer",
          "type": "address"
        }
      ],
      "stateMutability": "view",
      "type": "function"
    },
    {
      "inputs": [],
      "name": "checkUser",
      "outputs": [
        {
          "internalType": "bool",
          "name": "",
          "type": "bool"
        }
      ],
      "stateMutability": "view",
      "type": "function"
    },
    {
      "inputs": [
        {
          "internalType": "address payable",
          "name": "referrer",
          "type": "address"
        },
        {
          "internalType": "uint256",
          "name": "investAmt",
          "type": "uint256"
        }
      ],
      "name": "invest",
      "outputs": [],
      "stateMutability": "nonpayable",
      "type": "function"
    },
    {
      "inputs": [],
      "name": "withdraw",
      "outputs": [
        {
          "internalType": "bool",
          "name": "",
          "type": "bool"
        }
      ],
      "stateMutability": "nonpayable",
      "type": "function"
    },
    {
      "inputs": [],
      "name": "reinvestment",
      "outputs": [
        {
          "internalType": "bool",
          "name": "",
          "type": "bool"
        }
      ],
      "stateMutability": "nonpayable",
      "type": "function"
    },
    {
      "inputs": [
        {
          "internalType": "address",
          "name": "userAddress",
          "type": "address"
        }
      ],
      "name": "getNextUserAssignment",
      "outputs": [
        {
          "internalType": "uint256",
          "name": "",
          "type": "uint256"
        }
      ],
      "stateMutability": "view",
      "type": "function"
    },
    {
      "inputs": [
        {
          "internalType": "address",
          "name": "userAddress",
          "type": "address"
        }
      ],
      "name": "getUserholdRate",
      "outputs": [
        {
          "internalType": "uint256",
          "name": "",
          "type": "uint256"
        }
      ],
      "stateMutability": "view",
      "type": "function"
    },
    {
      "inputs": [],
      "name": "getPublicData",
      "outputs": [
        {
          "internalType": "uint256",
          "name": "totalUsers_",
          "type": "uint256"
        },
        {
          "internalType": "uint256",
          "name": "totalInvested_",
          "type": "uint256"
        },
        {
          "internalType": "uint256",
          "name": "totalReinvested_",
          "type": "uint256"
        },
        {
          "internalType": "uint256",
          "name": "totalWithdrawn_",
          "type": "uint256"
        },
        {
          "internalType": "uint256",
          "name": "totalDeposits_",
          "type": "uint256"
        },
        {
          "internalType": "uint256",
          "name": "balance_",
          "type": "uint256"
        },
        {
          "internalType": "uint256",
          "name": "roidBase",
          "type": "uint256"
        },
        {
          "internalType": "uint256",
          "name": "bonusPool",
          "type": "uint256"
        },
        {
          "internalType": "uint256",
          "name": "comunityBonus",
          "type": "uint256"
        },
        {
          "internalType": "uint256",
          "name": "currentRoi",
          "type": "uint256"
        },
        {
          "internalType": "uint256",
          "name": "maxProfit",
          "type": "uint256"
        },
        {
          "internalType": "uint256",
          "name": "minDeposit",
          "type": "uint256"
        },
        {
          "internalType": "uint256",
          "name": "daysFormdeploy",
          "type": "uint256"
        }
      ],
      "stateMutability": "view",
      "type": "function"
    },
    {
      "inputs": [
        {
          "internalType": "address",
          "name": "userAddress",
          "type": "address"
        }
      ],
      "name": "getUserData",
      "outputs": [
        {
          "internalType": "uint256",
          "name": "totalWithdrawn_",
          "type": "uint256"
        },
        {
          "internalType": "uint256",
          "name": "totalDeposits_",
          "type": "uint256"
        },
        {
          "internalType": "uint256",
          "name": "totalBonus_",
          "type": "uint256"
        },
        {
          "internalType": "uint256",
          "name": "totalreinvest_",
          "type": "uint256"
        },
        {
          "internalType": "uint256",
          "name": "hold_",
          "type": "uint256"
        },
        {
          "internalType": "uint256",
          "name": "balance_",
          "type": "uint256"
        },
        {
          "internalType": "uint256",
          "name": "nextAssignment_",
          "type": "uint256"
        },
        {
          "internalType": "uint256",
          "name": "amountOfDeposits",
          "type": "uint256"
        },
        {
          "internalType": "uint256",
          "name": "checkpoint",
          "type": "uint256"
        },
        {
          "internalType": "bool",
          "name": "isUser_",
          "type": "bool"
        },
        {
          "internalType": "address",
          "name": "referrer_",
          "type": "address"
        },
        {
          "internalType": "uint256[3]",
          "name": "referrerCount_",
          "type": "uint256[3]"
        }
      ],
      "stateMutability": "view",
      "type": "function"
    },
    {
      "inputs": [],
      "name": "getContractBalance",
      "outputs": [
        {
          "internalType": "uint256",
          "name": "",
          "type": "uint256"
        }
      ],
      "stateMutability": "view",
      "type": "function"
    },
    {
      "inputs": [
        {
          "internalType": "address",
          "name": "userAddress",
          "type": "address"
        }
      ],
      "name": "isActive",
      "outputs": [
        {
          "internalType": "bool",
          "name": "",
          "type": "bool"
        }
      ],
      "stateMutability": "view",
      "type": "function"
    },
    {
      "inputs": [
        {
          "internalType": "address",
          "name": "userAddress",
          "type": "address"
        },
        {
          "internalType": "uint256",
          "name": "index",
          "type": "uint256"
        }
      ],
      "name": "getUserDepositInfo",
      "outputs": [
        {
          "internalType": "uint256",
          "name": "initAmount_",
          "type": "uint256"
        },
        {
          "internalType": "uint256",
          "name": "amount_",
          "type": "uint256"
        },
        {
          "internalType": "uint256",
          "name": "withdrawn_",
          "type": "uint256"
        },
        {
          "internalType": "uint256",
          "name": "timeStart_",
          "type": "uint256"
        },
        {
          "internalType": "uint256",
          "name": "reinvested_",
          "type": "uint256"
        },
        {
          "internalType": "uint256",
          "name": "maxProfit",
          "type": "uint256"
        }
      ],
      "stateMutability": "view",
      "type": "function"
    },
    {
      "inputs": [],
      "name": "getComunityBonus",
      "outputs": [
        {
          "internalType": "uint256",
          "name": "",
          "type": "uint256"
        }
      ],
      "stateMutability": "view",
      "type": "function"
    },
    {
      "inputs": [],
      "name": "getBonusPoolPercent",
      "outputs": [
        {
          "internalType": "uint256",
          "name": "",
          "type": "uint256"
        }
      ],
      "stateMutability": "view",
      "type": "function"
    }
  ],
  "bytecode": "0x60806040526040518060600160405280603260ff168152602001601460ff168152602001600a60ff1681525060019060036200003d92919062000312565b503480156200004b57600080fd5b506040516200439238038062004392833981810160405260c08110156200007157600080fd5b81019080805190602001909291908051906020019092919080519060200190929190805190602001909291908051906020019092919080519060200190929190505050620000c586620002ff60201b60201c565b158015620000e15750620000df85620002ff60201b60201c565b155b8015620000fc5750620000fa82620002ff60201b60201c565b155b80156200011757506200011584620002ff60201b60201c565b155b6200012157600080fd5b84600e60006101000a81548173ffffffffffffffffffffffffffffffffffffffff021916908373ffffffffffffffffffffffffffffffffffffffff16021790555085600d60006101000a81548173ffffffffffffffffffffffffffffffffffffffff021916908373ffffffffffffffffffffffffffffffffffffffff16021790555082600c60006101000a81548173ffffffffffffffffffffffffffffffffffffffff021916908373ffffffffffffffffffffffffffffffffffffffff16021790555081600a60006101000a81548173ffffffffffffffffffffffffffffffffffffffff021916908373ffffffffffffffffffffffffffffffffffffffff16021790555083600b60006101000a81548173ffffffffffffffffffffffffffffffffffffffff021916908373ffffffffffffffffffffffffffffffffffffffff160217905550806000806101000a81548173ffffffffffffffffffffffffffffffffffffffff021916908373ffffffffffffffffffffffffffffffffffffffff1602179055507f62e78cea01bee320cd4e420270b5ea74000d11b0c9f74754ebdbfc544b05a25833604051808273ffffffffffffffffffffffffffffffffffffffff16815260200191505060405180910390a15050505050506200037b565b600080823b905060008111915050919050565b826003810192821562000349579160200282015b8281111562000348578251829060ff1690559160200191906001019062000326565b5b5090506200035891906200035c565b5090565b5b80821115620003775760008160009055506001016200035d565b5090565b614007806200038b6000396000f3fe608060405234801561001057600080fd5b50600436106101425760003560e01c8063b5eef3c3116100b8578063c15625471161007c578063c15625471461050b578063ca6d919c1461052b578063d7bd480a1461055f578063fc0c546a146105b7578063ff6f5dd7146105eb578063ffc9896b1461064357610142565b8063b5eef3c314610374578063b83fff0914610392578063b9b8c246146103c6578063bf7ce74214610414578063c0806b031461048657610142565b80636ee16c5b1161010a5780636ee16c5b1461020d5780636f9fb98a1461022b5780639f8a13d714610249578063a87430ba146102a3578063b187bd2614610334578063b5e86bea1461035457610142565b80633ad10ef6146101475780633ccfd60b1461017b5780633f4ba83a1461019b578063520a5935146101a55780635a759d65146101d9575b600080fd5b61014f610728565b604051808273ffffffffffffffffffffffffffffffffffffffff16815260200191505060405180910390f35b61018361074e565b60405180821515815260200191505060405180910390f35b6101a3610fc0565b005b6101ad611151565b604051808273ffffffffffffffffffffffffffffffffffffffff16815260200191505060405180910390f35b6101e1611177565b604051808273ffffffffffffffffffffffffffffffffffffffff16815260200191505060405180910390f35b61021561119d565b6040518082815260200191505060405180910390f35b6102336111fa565b6040518082815260200191505060405180910390f35b61028b6004803603602081101561025f57600080fd5b81019080803573ffffffffffffffffffffffffffffffffffffffff1690602001909291905050506112c4565b60405180821515815260200191505060405180910390f35b6102e5600480360360208110156102b957600080fd5b81019080803573ffffffffffffffffffffffffffffffffffffffff1690602001909291905050506114ff565b604051808781526020018681526020018581526020018481526020018381526020018273ffffffffffffffffffffffffffffffffffffffff168152602001965050505050505060405180910390f35b61033c61155b565b60405180821515815260200191505060405180910390f35b61035c611567565b60405180821515815260200191505060405180910390f35b61037c611dc3565b6040518082815260200191505060405180910390f35b61039a611e13565b604051808273ffffffffffffffffffffffffffffffffffffffff16815260200191505060405180910390f35b610412600480360360408110156103dc57600080fd5b81019080803573ffffffffffffffffffffffffffffffffffffffff16906020019092919080359060200190929190505050611e39565b005b61041c612bf4565b604051808e81526020018d81526020018c81526020018b81526020018a81526020018981526020018881526020018781526020018681526020018581526020018481526020018381526020018281526020019d505050505050505050505050505060405180910390f35b6104d26004803603604081101561049c57600080fd5b81019080803573ffffffffffffffffffffffffffffffffffffffff16906020019092919080359060200190929190505050612cb6565b60405180878152602001868152602001858152602001848152602001838152602001828152602001965050505050505060405180910390f35b610513612eae565b60405180821515815260200191505060405180910390f35b610533612ffe565b604051808273ffffffffffffffffffffffffffffffffffffffff16815260200191505060405180910390f35b6105a16004803603602081101561057557600080fd5b81019080803573ffffffffffffffffffffffffffffffffffffffff169060200190929190505050613024565b6040518082815260200191505060405180910390f35b6105bf6130e8565b604051808273ffffffffffffffffffffffffffffffffffffffff16815260200191505060405180910390f35b61062d6004803603602081101561060157600080fd5b81019080803573ffffffffffffffffffffffffffffffffffffffff16906020019092919050505061310c565b6040518082815260200191505060405180910390f35b6106856004803603602081101561065957600080fd5b81019080803573ffffffffffffffffffffffffffffffffffffffff16906020019092919050505061325e565b604051808d81526020018c81526020018b81526020018a815260200189815260200188815260200187815260200186815260200185815260200184151581526020018373ffffffffffffffffffffffffffffffffffffffff16815260200182600360200280838360005b8381101561070a5780820151818401526020810190506106ef565b505050509050019c5050505050505050505050505060405180910390f35b600d60009054906101000a900473ffffffffffffffffffffffffffffffffffffffff1681565b600080600454116107c7576040517f08c379a00000000000000000000000000000000000000000000000000000000081526004018080602001828103825260108152602001807f5061757361626c653a207061757365640000000000000000000000000000000081525060200191505060405180910390fd5b60006108fa6108eb600f60003373ffffffffffffffffffffffffffffffffffffffff1673ffffffffffffffffffffffffffffffffffffffff1681526020019081526020016000206040518060e0016040529081600182015481526020016002820154815260200160038201548152602001600482015481526020016005820154815260200160068201600380602002604051908101604052809291908260038015610887576020028201915b815481526020019060010190808311610873575b505050505081526020016009820160009054906101000a900473ffffffffffffffffffffffffffffffffffffffff1673ffffffffffffffffffffffffffffffffffffffff1673ffffffffffffffffffffffffffffffffffffffff1681525050613417565b4261345790919063ffffffff16565b9050620151808111610974576040517f08c379a000000000000000000000000000000000000000000000000000000000815260040180806020018281038252600f8152602001807f74727920616761696e206c61746572000000000000000000000000000000000081525060200191505060405180910390fd5b61097d336112c4565b6109ef576040517f08c379a000000000000000000000000000000000000000000000000000000000815260040180806020018281038252600c8152602001807f446f6e742069732055736572000000000000000000000000000000000000000081525060200191505060405180910390fd5b6000600f60003373ffffffffffffffffffffffffffffffffffffffff1673ffffffffffffffffffffffffffffffffffffffff1681526020019081526020016000209050600080610a57610a40611dc3565b610a4933613024565b6134a190919063ffffffff16565b905060005b8360010154811015610c2b576000610a72613f0d565b8560000160008481526020019081526020016000206040518060800160405290816000820154815260200160018201548152602001600282015481526020016003820154815250509050610ac581613529565b81602001511015610c1c57610bb38185886040518060e0016040529081600182015481526020016002820154815260200160038201548152602001600482015481526020016005820154815260200160068201600380602002604051908101604052809291908260038015610b4f576020028201915b815481526020019060010190808311610b3b575b505050505081526020016009820160009054906101000a900473ffffffffffffffffffffffffffffffffffffffff1673ffffffffffffffffffffffffffffffffffffffff1673ffffffffffffffffffffffffffffffffffffffff168152505061355f565b91506000821115610c1b57610be982876000016000868152602001908152602001600020600101546134a190919063ffffffff16565b86600001600085815260200190815260200160002060010181905550610c1882866134a190919063ffffffff16565b94505b5b50508080600101915050610a5c565b506000836003015490506000811115610c5c57610c5181846134a190919063ffffffff16565b925083600301600090555b6703782dace9d90000831015610cda576040517f08c379a00000000000000000000000000000000000000000000000000000000081526004018080602001828103825260158152602001807f5573657220686173206e6f206469766964656e6473000000000000000000000081525060200191505060405180910390fd5b6000610ce46111fa565b905083811015610cf2578093505b4285600401819055506000610d256103e8610d1760328861366590919063ffffffff16565b6136eb90919063ffffffff16565b90506000610d3c828761345790919063ffffffff16565b9050610d53866007546134a190919063ffffffff16565b60078190555060008054906101000a900473ffffffffffffffffffffffffffffffffffffffff1673ffffffffffffffffffffffffffffffffffffffff1663a9059cbb600e60009054906101000a900473ffffffffffffffffffffffffffffffffffffffff16846040518363ffffffff1660e01b8152600401808373ffffffffffffffffffffffffffffffffffffffff16815260200182815260200192505050602060405180830381600087803b158015610e0c57600080fd5b505af1158015610e20573d6000803e3d6000fd5b505050506040513d6020811015610e3657600080fd5b81019080805190602001909291905050505060008054906101000a900473ffffffffffffffffffffffffffffffffffffffff1673ffffffffffffffffffffffffffffffffffffffff1663a9059cbb33836040518363ffffffff1660e01b8152600401808373ffffffffffffffffffffffffffffffffffffffff16815260200182815260200192505050602060405180830381600087803b158015610ed957600080fd5b505af1158015610eed573d6000803e3d6000fd5b505050506040513d6020811015610f0357600080fd5b8101908080519060200190929190505050503373ffffffffffffffffffffffffffffffffffffffff167f2899dc8c12def1caa9accb64257cf2fd9f960f21bb27a560a757eae3c2ec43c1836040518082815260200191505060405180910390a23373ffffffffffffffffffffffffffffffffffffffff167f7084f5476618d8e60b11ef0d7d3f06914655adb8793e28ff7f018d4c76d505d5876040518082815260200191505060405180910390a260019850505050505050505090565b600060045414611038576040517f08c379a00000000000000000000000000000000000000000000000000000000081526004018080602001828103825260148152602001807f5061757361626c653a206e6f742070617573656400000000000000000000000081525060200191505060405180910390fd5b3373ffffffffffffffffffffffffffffffffffffffff16600d60009054906101000a900473ffffffffffffffffffffffffffffffffffffffff1673ffffffffffffffffffffffffffffffffffffffff16146110fb576040517f08c379a00000000000000000000000000000000000000000000000000000000081526004018080602001828103825260208152602001807f4f776e61626c653a2063616c6c6572206973206e6f7420746865206f776e657281525060200191505060405180910390fd5b426004819055507f5db9ee0a495bf2e6ff9c91a7834c1ba4fdd244a5e8aa4e537bd38aeae4b073aa33604051808273ffffffffffffffffffffffffffffffffffffffff16815260200191505060405180910390a1565b600b60009054906101000a900473ffffffffffffffffffffffffffffffffffffffff1681565b600e60009054906101000a900473ffffffffffffffffffffffffffffffffffffffff1681565b6000806111ca620151806111bc6004544261345790919063ffffffff16565b6136eb90919063ffffffff16565b905060006111e2600a8361366590919063ffffffff16565b905060508111156111f257605090505b809250505090565b60008060009054906101000a900473ffffffffffffffffffffffffffffffffffffffff1673ffffffffffffffffffffffffffffffffffffffff166370a08231306040518263ffffffff1660e01b8152600401808273ffffffffffffffffffffffffffffffffffffffff16815260200191505060206040518083038186803b15801561128457600080fd5b505afa158015611298573d6000803e3d6000fd5b505050506040513d60208110156112ae57600080fd5b8101908080519060200190929190505050905090565b60006112ce613f35565b600f60008473ffffffffffffffffffffffffffffffffffffffff1673ffffffffffffffffffffffffffffffffffffffff1681526020019081526020016000206040518060e0016040529081600182015481526020016002820154815260200160038201548152602001600482015481526020016005820154815260200160068201600380602002604051908101604052809291908260038015611386576020028201915b815481526020019060010190808311611372575b505050505081526020016009820160009054906101000a900473ffffffffffffffffffffffffffffffffffffffff1673ffffffffffffffffffffffffffffffffffffffff1673ffffffffffffffffffffffffffffffffffffffff168152505090506000816000015111156114f857611489600f60008573ffffffffffffffffffffffffffffffffffffffff1673ffffffffffffffffffffffffffffffffffffffff168152602001908152602001600020600001600060018460000151038152602001908152602001600020604051806080016040529081600082015481526020016001820154815260200160028201548152602001600382015481525050613529565b600f60008573ffffffffffffffffffffffffffffffffffffffff1673ffffffffffffffffffffffffffffffffffffffff1681526020019081526020016000206000016000600184600001510381526020019081526020016000206001015410156114f75760019150506114fa565b5b505b919050565b600f6020528060005260406000206000915090508060010154908060020154908060030154908060040154908060050154908060090160009054906101000a900473ffffffffffffffffffffffffffffffffffffffff16905086565b60008060045414905090565b600080600454116115e0576040517f08c379a00000000000000000000000000000000000000000000000000000000081526004018080602001828103825260108152602001807f5061757361626c653a207061757365640000000000000000000000000000000081525060200191505060405180910390fd5b6000611713611704600f60003373ffffffffffffffffffffffffffffffffffffffff1673ffffffffffffffffffffffffffffffffffffffff1681526020019081526020016000206040518060e00160405290816001820154815260200160028201548152602001600382015481526020016004820154815260200160058201548152602001600682016003806020026040519081016040528092919082600380156116a0576020028201915b81548152602001906001019080831161168c575b505050505081526020016009820160009054906101000a900473ffffffffffffffffffffffffffffffffffffffff1673ffffffffffffffffffffffffffffffffffffffff1673ffffffffffffffffffffffffffffffffffffffff1681525050613417565b4261345790919063ffffffff16565b905062015180811161178d576040517f08c379a000000000000000000000000000000000000000000000000000000000815260040180806020018281038252600f8152602001807f74727920616761696e206c61746572000000000000000000000000000000000081525060200191505060405180910390fd5b611796336112c4565b611808576040517f08c379a000000000000000000000000000000000000000000000000000000000815260040180806020018281038252600c8152602001807f446f6e742069732055736572000000000000000000000000000000000000000081525060200191505060405180910390fd5b6000600f60003373ffffffffffffffffffffffffffffffffffffffff1673ffffffffffffffffffffffffffffffffffffffff1681526020019081526020016000209050600080611870611859611dc3565b61186233613024565b6134a190919063ffffffff16565b905060005b8360010154811015611a4457600061188b613f0d565b85600001600084815260200190815260200160002060405180608001604052908160008201548152602001600182015481526020016002820154815260200160038201548152505090506118de81613529565b81602001511015611a35576119cc8185886040518060e0016040529081600182015481526020016002820154815260200160038201548152602001600482015481526020016005820154815260200160068201600380602002604051908101604052809291908260038015611968576020028201915b815481526020019060010190808311611954575b505050505081526020016009820160009054906101000a900473ffffffffffffffffffffffffffffffffffffffff1673ffffffffffffffffffffffffffffffffffffffff1673ffffffffffffffffffffffffffffffffffffffff168152505061355f565b91506000821115611a3457611a0282876000016000868152602001908152602001600020600001546134a190919063ffffffff16565b86600001600085815260200190815260200160002060000181905550611a3182866134a190919063ffffffff16565b94505b5b50508080600101915050611875565b5060008211611abb576040517f08c379a00000000000000000000000000000000000000000000000000000000081526004018080602001828103825260158152602001807f5573657220686173206e6f206469766964656e6473000000000000000000000081525060200191505060405180910390fd5b611ad28284600201546134a190919063ffffffff16565b8360020181905550611aef826009546134a190919063ffffffff16565b6009819055504283600501819055506000611b3b6002611b2d6103e8611b1f60648861366590919063ffffffff16565b6136eb90919063ffffffff16565b6136eb90919063ffffffff16565b905060008054906101000a900473ffffffffffffffffffffffffffffffffffffffff1673ffffffffffffffffffffffffffffffffffffffff1663a9059cbb600d60009054906101000a900473ffffffffffffffffffffffffffffffffffffffff16836040518363ffffffff1660e01b8152600401808373ffffffffffffffffffffffffffffffffffffffff16815260200182815260200192505050602060405180830381600087803b158015611bf057600080fd5b505af1158015611c04573d6000803e3d6000fd5b505050506040513d6020811015611c1a57600080fd5b81019080805190602001909291905050505060008054906101000a900473ffffffffffffffffffffffffffffffffffffffff1673ffffffffffffffffffffffffffffffffffffffff1663a9059cbb600b60009054906101000a900473ffffffffffffffffffffffffffffffffffffffff16836040518363ffffffff1660e01b8152600401808373ffffffffffffffffffffffffffffffffffffffff16815260200182815260200192505050602060405180830381600087803b158015611cdf57600080fd5b505af1158015611cf3573d6000803e3d6000fd5b505050506040513d6020811015611d0957600080fd5b8101908080519060200190929190505050503373ffffffffffffffffffffffffffffffffffffffff167f2899dc8c12def1caa9accb64257cf2fd9f960f21bb27a560a757eae3c2ec43c1826040518082815260200191505060405180910390a23373ffffffffffffffffffffffffffffffffffffffff167ff218ee5b0fa9dbbcd9731866559aa37dc58548988accdbbb5729cb5beced6f03846040518082815260200191505060405180910390a260019550505050505090565b600080611dfc680ad78ebc5ac6200000611dee6001611de06111fa565b61366590919063ffffffff16565b6136eb90919063ffffffff16565b90506050811115611e0c57605090505b8091505090565b600c60009054906101000a900473ffffffffffffffffffffffffffffffffffffffff1681565b6703782dace9d90000811015611eb7576040517f08c379a00000000000000000000000000000000000000000000000000000000081526004018080602001828103825260148152602001807f696e73756666696369656e74206465706f73697400000000000000000000000081525060200191505060405180910390fd5b60008054906101000a900473ffffffffffffffffffffffffffffffffffffffff1673ffffffffffffffffffffffffffffffffffffffff166323b872dd3330846040518463ffffffff1660e01b8152600401808473ffffffffffffffffffffffffffffffffffffffff1681526020018373ffffffffffffffffffffffffffffffffffffffff1681526020018281526020019350505050602060405180830381600087803b158015611f6657600080fd5b505af1158015611f7a573d6000803e3d6000fd5b505050506040513d6020811015611f9057600080fd5b8101908080519060200190929190505050506000611fcc6103e8611fbe60648561366590919063ffffffff16565b6136eb90919063ffffffff16565b905060008054906101000a900473ffffffffffffffffffffffffffffffffffffffff1673ffffffffffffffffffffffffffffffffffffffff1663a9059cbb600a60009054906101000a900473ffffffffffffffffffffffffffffffffffffffff166120566103e861204861012c8761366590919063ffffffff16565b6136eb90919063ffffffff16565b6040518363ffffffff1660e01b8152600401808373ffffffffffffffffffffffffffffffffffffffff16815260200182815260200192505050602060405180830381600087803b1580156120a957600080fd5b505af11580156120bd573d6000803e3d6000fd5b505050506040513d60208110156120d357600080fd5b81019080805190602001909291905050505060008054906101000a900473ffffffffffffffffffffffffffffffffffffffff1673ffffffffffffffffffffffffffffffffffffffff1663a9059cbb600d60009054906101000a900473ffffffffffffffffffffffffffffffffffffffff1661216d6103e861215f61012c8761366590919063ffffffff16565b6136eb90919063ffffffff16565b6040518363ffffffff1660e01b8152600401808373ffffffffffffffffffffffffffffffffffffffff16815260200182815260200192505050602060405180830381600087803b1580156121c057600080fd5b505af11580156121d4573d6000803e3d6000fd5b505050506040513d60208110156121ea57600080fd5b81019080805190602001909291905050505060008054906101000a900473ffffffffffffffffffffffffffffffffffffffff1673ffffffffffffffffffffffffffffffffffffffff1663a9059cbb600b60009054906101000a900473ffffffffffffffffffffffffffffffffffffffff166122836103e861227560c88761366590919063ffffffff16565b6136eb90919063ffffffff16565b6040518363ffffffff1660e01b8152600401808373ffffffffffffffffffffffffffffffffffffffff16815260200182815260200192505050602060405180830381600087803b1580156122d657600080fd5b505af11580156122ea573d6000803e3d6000fd5b505050506040513d602081101561230057600080fd5b81019080805190602001909291905050505060008054906101000a900473ffffffffffffffffffffffffffffffffffffffff1673ffffffffffffffffffffffffffffffffffffffff1663a9059cbb600c60009054906101000a900473ffffffffffffffffffffffffffffffffffffffff166123996103e861238b60c88761366590919063ffffffff16565b6136eb90919063ffffffff16565b6040518363ffffffff1660e01b8152600401808373ffffffffffffffffffffffffffffffffffffffff16815260200182815260200192505050602060405180830381600087803b1580156123ec57600080fd5b505af1158015612400573d6000803e3d6000fd5b505050506040513d602081101561241657600080fd5b81019080805190602001909291905050505060008054906101000a900473ffffffffffffffffffffffffffffffffffffffff1673ffffffffffffffffffffffffffffffffffffffff1663a9059cbb600e60009054906101000a900473ffffffffffffffffffffffffffffffffffffffff166124af6103e86124a160148861366590919063ffffffff16565b6136eb90919063ffffffff16565b6040518363ffffffff1660e01b8152600401808373ffffffffffffffffffffffffffffffffffffffff16815260200182815260200192505050602060405180830381600087803b15801561250257600080fd5b505af1158015612516573d6000803e3d6000fd5b505050506040513d602081101561252c57600080fd5b8101908080519060200190929190505050503373ffffffffffffffffffffffffffffffffffffffff167f2899dc8c12def1caa9accb64257cf2fd9f960f21bb27a560a757eae3c2ec43c16125b16103e86125a3612594601460646134a190919063ffffffff16565b8761366590919063ffffffff16565b6136eb90919063ffffffff16565b6040518082815260200191505060405180910390a26000600f60003373ffffffffffffffffffffffffffffffffffffffff1673ffffffffffffffffffffffffffffffffffffffff1681526020019081526020016000209050600073ffffffffffffffffffffffffffffffffffffffff168160090160009054906101000a900473ffffffffffffffffffffffffffffffffffffffff1673ffffffffffffffffffffffffffffffffffffffff161480156126ab57506000600f60008673ffffffffffffffffffffffffffffffffffffffff1673ffffffffffffffffffffffffffffffffffffffff16815260200190815260200160002060010154115b80156126e357503373ffffffffffffffffffffffffffffffffffffffff168473ffffffffffffffffffffffffffffffffffffffff1614155b1561272c57838160090160006101000a81548173ffffffffffffffffffffffffffffffffffffffff021916908373ffffffffffffffffffffffffffffffffffffffff1602179055505b600073ffffffffffffffffffffffffffffffffffffffff168160090160009054906101000a900473ffffffffffffffffffffffffffffffffffffffff1673ffffffffffffffffffffffffffffffffffffffff1614612a695760008160090160009054906101000a900473ffffffffffffffffffffffffffffffffffffffff16905060005b6003811015612a6657600073ffffffffffffffffffffffffffffffffffffffff168273ffffffffffffffffffffffffffffffffffffffff1614612a545760006128246103e86128166001856003811061280557fe5b01548961366590919063ffffffff16565b6136eb90919063ffffffff16565b905061287b81600f60008673ffffffffffffffffffffffffffffffffffffffff1673ffffffffffffffffffffffffffffffffffffffff168152602001908152602001600020600301546134a190919063ffffffff16565b600f60008573ffffffffffffffffffffffffffffffffffffffff1673ffffffffffffffffffffffffffffffffffffffff16815260200190815260200160002060030181905550600084600101541415612983576129306001600f60008673ffffffffffffffffffffffffffffffffffffffff1673ffffffffffffffffffffffffffffffffffffffff168152602001908152602001600020600601846003811061292057fe5b01546134a190919063ffffffff16565b600f60008573ffffffffffffffffffffffffffffffffffffffff1673ffffffffffffffffffffffffffffffffffffffff168152602001908152602001600020600601836003811061297d57fe5b01819055505b813373ffffffffffffffffffffffffffffffffffffffff168473ffffffffffffffffffffffffffffffffffffffff167fd41f7e766eebcc7ff42b11ac8691bdf864db4afc0c55e71d629d54edce460d98846040518082815260200191505060405180910390a4600f60008473ffffffffffffffffffffffffffffffffffffffff1673ffffffffffffffffffffffffffffffffffffffff16815260200190815260200160002060090160009054906101000a900473ffffffffffffffffffffffffffffffffffffffff16925050612a59565b612a66565b80806001019150506127b0565b50505b600081600101541415612ae957428160040181905550612a9560016005546134a190919063ffffffff16565b6005819055507f9fd565cd14c3c391679eb0cad12a14dcf7534e9d3462bcb9b67a098a9bbbc24a33604051808273ffffffffffffffffffffffffffffffffffffffff16815260200191505060405180910390a15b612af1613f0d565b8381600001818152505083816040018181525050428160600181815250508082600001600084600101548152602001908152602001600020600082015181600001556020820151816001015560408201518160020155606082015181600301559050508160010160008154809291906001019190505550612b7d846006546134a190919063ffffffff16565b600681905550612b9960016008546134a190919063ffffffff16565b6008819055503373ffffffffffffffffffffffffffffffffffffffff167f2cb77763bc1e8490c1a904905c4d74b4269919aca114464f4bb4d911e60de364856040518082815260200191505060405180910390a25050505050565b60008060008060008060008060008060008060006005549c506006549b506009549a5060075499506008549850612c296111fa565b975060509650612c37611dc3565b9550612c4161119d565b9450612c6986612c5b8760506134a190919063ffffffff16565b6134a190919063ffffffff16565b93506107d092506703782dace9d900009150612ca562015180612c976004544261345790919063ffffffff16565b6136eb90919063ffffffff16565b9050909192939495969798999a9b9c565b600080600080600080612cc7613f35565b600f60008a73ffffffffffffffffffffffffffffffffffffffff1673ffffffffffffffffffffffffffffffffffffffff1681526020019081526020016000206040518060e0016040529081600182015481526020016002820154815260200160038201548152602001600482015481526020016005820154815260200160068201600380602002604051908101604052809291908260038015612d7f576020028201915b815481526020019060010190808311612d6b575b505050505081526020016009820160009054906101000a900473ffffffffffffffffffffffffffffffffffffffff1673ffffffffffffffffffffffffffffffffffffffff1673ffffffffffffffffffffffffffffffffffffffff16815250509050612de8613f0d565b600f60008b73ffffffffffffffffffffffffffffffffffffffff1673ffffffffffffffffffffffffffffffffffffffff16815260200190815260200160002060000160008a81526020019081526020016000206040518060800160405290816000820154815260200160018201548152602001600282015481526020016003820154815250509050806040015197508060000151965080602001519550612e8e81613735565b945081602001519350612ea081613529565b925050509295509295509295565b600080612fe2612fd3600f60003373ffffffffffffffffffffffffffffffffffffffff1673ffffffffffffffffffffffffffffffffffffffff1681526020019081526020016000206040518060e0016040529081600182015481526020016002820154815260200160038201548152602001600482015481526020016005820154815260200160068201600380602002604051908101604052809291908260038015612f6f576020028201915b815481526020019060010190808311612f5b575b505050505081526020016009820160009054906101000a900473ffffffffffffffffffffffffffffffffffffffff1673ffffffffffffffffffffffffffffffffffffffff1673ffffffffffffffffffffffffffffffffffffffff1681525050613417565b4261345790919063ffffffff16565b905062015180811115612ff9576001915050612ffb565b505b90565b600a60009054906101000a900473ffffffffffffffffffffffffffffffffffffffff1681565b600061302f826112c4565b156130e2576000600f60008473ffffffffffffffffffffffffffffffffffffffff1673ffffffffffffffffffffffffffffffffffffffff16815260200190815260200160002060040154905080600454111561308b5760045490505b60006130c860056130ba620151806130ac864261345790919063ffffffff16565b6136eb90919063ffffffff16565b61366590919063ffffffff16565b9050603c8111156130d857603c90505b80925050506130e3565b5b919050565b60008054906101000a900473ffffffffffffffffffffffffffffffffffffffff1681565b60008061322e600f60008573ffffffffffffffffffffffffffffffffffffffff1673ffffffffffffffffffffffffffffffffffffffff1681526020019081526020016000206040518060e00160405290816001820154815260200160028201548152602001600382015481526020016004820154815260200160058201548152602001600682016003806020026040519081016040528092919082600380156131ca576020028201915b8154815260200190600101908083116131b6575b505050505081526020016009820160009054906101000a900473ffffffffffffffffffffffffffffffffffffffff1673ffffffffffffffffffffffffffffffffffffffff1673ffffffffffffffffffffffffffffffffffffffff1681525050613417565b90508060045411156132405760045490505b61325662015180826134a190919063ffffffff16565b915050919050565b6000806000806000806000806000806000613277613f8e565b61327f613f35565b600f60008f73ffffffffffffffffffffffffffffffffffffffff1673ffffffffffffffffffffffffffffffffffffffff1681526020019081526020016000206040518060e0016040529081600182015481526020016002820154815260200160038201548152602001600482015481526020016005820154815260200160068201600380602002604051908101604052809291908260038015613337576020028201915b815481526020019060010190808311613323575b505050505081526020016009820160009054906101000a900473ffffffffffffffffffffffffffffffffffffffff1673ffffffffffffffffffffffffffffffffffffffff1673ffffffffffffffffffffffffffffffffffffffff168152505090506133a18e61375c565b9c506133ac8e613916565b9b506133b78e61310c565b96506133c28e613ad0565b97506133cd8e613024565b98508060200151995080604001519a50806000015195506133ed81613417565b9450600081600001511193508060c0015192508060a0015191505091939597999b5091939597999b565b600080826080015183606001511115613436578260600151905061343e565b826080015190505b80600454111561344e5760045490505b80915050919050565b600061349983836040518060400160405280601e81526020017f536166654d6174683a207375627472616374696f6e206f766572666c6f770000815250613d0d565b905092915050565b60008082840190508381101561351f576040517f08c379a000000000000000000000000000000000000000000000000000000000815260040180806020018281038252601b8152602001807f536166654d6174683a206164646974696f6e206f766572666c6f77000000000081525060200191505060405180910390fd5b8091505092915050565b60006135586103e861354a6107d0856040015161366590919063ffffffff16565b6136eb90919063ffffffff16565b9050919050565b600080600061357f61357087613dcd565b866134a190919063ffffffff16565b9050600061358c87613735565b905061359785613417565b8110156135aa576135a785613417565b90505b61360e6135c5620151806103e861366590919063ffffffff16565b6136006135ed6135de854261345790919063ffffffff16565b8661366590919063ffffffff16565b8a6000015161366590919063ffffffff16565b6136eb90919063ffffffff16565b925061361987613529565b6136308489602001516134a190919063ffffffff16565b111561365857613655876020015161364789613529565b61345790919063ffffffff16565b92505b8293505050509392505050565b60008083141561367857600090506136e5565b600082840290508284828161368957fe5b04146136e0576040517f08c379a0000000000000000000000000000000000000000000000000000000008152600401808060200182810382526021815260200180613fb16021913960400191505060405180910390fd5b809150505b92915050565b600061372d83836040518060400160405280601a81526020017f536166654d6174683a206469766973696f6e206279207a65726f000000000000815250613e47565b905092915050565b60008160600151600454111561374f576004549050613757565b816060015190505b919050565b6000613766613f35565b600f60008473ffffffffffffffffffffffffffffffffffffffff1673ffffffffffffffffffffffffffffffffffffffff1681526020019081526020016000206040518060e001604052908160018201548152602001600282015481526020016003820154815260200160048201548152602001600582015481526020016006820160038060200260405190810160405280929190826003801561381e576020028201915b81548152602001906001019080831161380a575b505050505081526020016009820160009054906101000a900473ffffffffffffffffffffffffffffffffffffffff1673ffffffffffffffffffffffffffffffffffffffff1673ffffffffffffffffffffffffffffffffffffffff16815250509050600080600090505b826000015181101561390b576138fc600f60008773ffffffffffffffffffffffffffffffffffffffff1673ffffffffffffffffffffffffffffffffffffffff168152602001908152602001600020600001600083815260200190815260200160002060010154836134a190919063ffffffff16565b91508080600101915050613887565b508092505050919050565b6000613920613f35565b600f60008473ffffffffffffffffffffffffffffffffffffffff1673ffffffffffffffffffffffffffffffffffffffff1681526020019081526020016000206040518060e00160405290816001820154815260200160028201548152602001600382015481526020016004820154815260200160058201548152602001600682016003806020026040519081016040528092919082600380156139d8576020028201915b8154815260200190600101908083116139c4575b505050505081526020016009820160009054906101000a900473ffffffffffffffffffffffffffffffffffffffff1673ffffffffffffffffffffffffffffffffffffffff1673ffffffffffffffffffffffffffffffffffffffff16815250509050600080600090505b8260000151811015613ac557613ab6600f60008773ffffffffffffffffffffffffffffffffffffffff1673ffffffffffffffffffffffffffffffffffffffff168152602001908152602001600020600001600083815260200190815260200160002060000154836134a190919063ffffffff16565b91508080600101915050613a41565b508092505050919050565b6000613ada613f35565b600f60008473ffffffffffffffffffffffffffffffffffffffff1673ffffffffffffffffffffffffffffffffffffffff1681526020019081526020016000206040518060e0016040529081600182015481526020016002820154815260200160038201548152602001600482015481526020016005820154815260200160068201600380602002604051908101604052809291908260038015613b92576020028201915b815481526020019060010190808311613b7e575b505050505081526020016009820160009054906101000a900473ffffffffffffffffffffffffffffffffffffffff1673ffffffffffffffffffffffffffffffffffffffff1673ffffffffffffffffffffffffffffffffffffffff16815250509050600080613c18613c01611dc3565b613c0a87613024565b6134a190919063ffffffff16565b905060005b8360000151811015613d0157613c31613f0d565b600f60008873ffffffffffffffffffffffffffffffffffffffff1673ffffffffffffffffffffffffffffffffffffffff16815260200190815260200160002060000160008381526020019081526020016000206040518060800160405290816000820154815260200160018201548152602001600282015481526020016003820154815250509050613cc281613529565b81602001511015613cf3576000613cda82858861355f565b9050613cef81866134a190919063ffffffff16565b9450505b508080600101915050613c1d565b50819350505050919050565b6000838311158290613dba576040517f08c379a00000000000000000000000000000000000000000000000000000000081526004018080602001828103825283818151815260200191508051906020019080838360005b83811015613d7f578082015181840152602081019050613d64565b50505050905090810190601f168015613dac5780820380516001836020036101000a031916815260200191505b509250505060405180910390fd5b5060008385039050809150509392505050565b600080613e0262015180613df4600454613de687613735565b61345790919063ffffffff16565b6136eb90919063ffffffff16565b90506000613e1a600a8361366590919063ffffffff16565b90506050811115613e2a57605090505b613e3e8160506134a190919063ffffffff16565b92505050919050565b60008083118290613ef3576040517f08c379a00000000000000000000000000000000000000000000000000000000081526004018080602001828103825283818151815260200191508051906020019080838360005b83811015613eb8578082015181840152602081019050613e9d565b50505050905090810190601f168015613ee55780820380516001836020036101000a031916815260200191505b509250505060405180910390fd5b506000838581613eff57fe5b049050809150509392505050565b6040518060800160405280600081526020016000815260200160008152602001600081525090565b6040518060e001604052806000815260200160008152602001600081526020016000815260200160008152602001613f6b613f8e565b8152602001600073ffffffffffffffffffffffffffffffffffffffff1681525090565b604051806060016040528060039060208202803683378082019150509050509056fe536166654d6174683a206d756c7469706c69636174696f6e206f766572666c6f77a264697066735822122074ff45c761600b2f3e0d100aaedd170f62fcb497c982cb7c1b8f550e0249abbc64736f6c634300060c0033",
  "immutableReferences": {},
  "source": "// SPDX-License-Identifier: MIT\npragma solidity ^0.6.12;\nimport \"./CakeVault_State.sol\";\n\ncontract CakeVault is CakeVault_State{\n\tevent Newbie(address user);\n\tevent NewDeposit(address indexed user, uint256 amount);\n\tevent Withdrawn(address indexed user, uint256 amount);\n\tevent RefBonus(address indexed referrer, address indexed referral, uint256 indexed level, uint256 amount);\n\tevent FeePayed(address indexed user, uint256 totalAmount);\n\tevent Reinvestment(address indexed user, uint256 amount);\n\n\tconstructor(address payable devAddr, address payable SecAddr, address payable markAddrs, address payable projectAddrs,\n\t\taddress payable partAddr, IBEP20 token_) public {\n\t\trequire(!isContract(devAddr) && !isContract(SecAddr) && !isContract(partAddr) && !isContract(markAddrs));\n\t\tsecureAddress = SecAddr;\n\t\tdevAddress = devAddr;\n\t\tprojectAdress =  projectAddrs;\n\t\tpartnerAdress = partAddr;\n\t\tmarketingAdress = markAddrs;\n\t\ttoken = token_;\n\t\temit Paused(msg.sender);\n\t}\n\n\tmodifier checkUser_() {\n\t\tuint256 check;\n\t\tcheck = block.timestamp.sub(getlastActionDate(users[msg.sender]));\n\t\trequire(check > TIME_STEP,'try again later');\n\t\t_;\n\t}\n\n\tfunction checkUser() external view returns (bool){\n\t\tuint256 check;\n\t\tcheck = block.timestamp.sub(getlastActionDate(users[msg.sender]));\n\t\tif(check > TIME_STEP)\n\t\treturn true;\n\t}\n\n\tfunction invest(address payable referrer, uint256 investAmt) external {\n\t\trequire(investAmt >= INVEST_MIN_AMOUNT, 'insufficient deposit');\n\n\t\ttoken.transferFrom(msg.sender,address(this),investAmt);\n\n\t\tuint256 investFee = (investAmt.mul(INVEST_FEE)).div(PERCENTS_DIVIDER);\n\n\t\ttoken.transfer(partnerAdress,(investFee.mul(300)).div(PERCENTS_DIVIDER));\n\t\ttoken.transfer(devAddress,(investFee.mul(300)).div(PERCENTS_DIVIDER));\n\t\ttoken.transfer(marketingAdress,(investFee.mul(200)).div(PERCENTS_DIVIDER));\n\t\ttoken.transfer(projectAdress,(investFee.mul(200)).div(PERCENTS_DIVIDER));\n\t\ttoken.transfer(secureAddress,(investAmt.mul(SECURE_FEE)).div(PERCENTS_DIVIDER));\n\n\t\temit FeePayed(msg.sender, (investAmt.mul(INVEST_FEE.add(SECURE_FEE))).div(PERCENTS_DIVIDER));\n\n\t\tUser storage user = users[msg.sender];\n\n\t\tif (user.referrer == address(0) && users[referrer].depositsLength > 0 && referrer != msg.sender) {\n\t\t\tuser.referrer = referrer;\n\t\t}\n\n\t\tif (user.referrer != address(0)) {\n\t\t\taddress payable upline = user.referrer;\n\t\t\tfor(uint256 i = 0; i < REFERRAL_PERCENTS.length; i++) {\n\t\t\t\tif(upline != address(0)) {\n\t\t\t\t\tuint256 amount = (investAmt.mul(REFERRAL_PERCENTS[i])).div(PERCENTS_DIVIDER);\n\t\t\t\t\tusers[upline].bonus = users[upline].bonus.add(amount);\n\t\t\t\t\tif(user.depositsLength == 0)\n\t\t\t\t\tusers[upline].referrerCount[i] = users[upline].referrerCount[i].add(1);\n\t\t\t\t\temit RefBonus(upline, msg.sender, i, amount);\n\t\t\t\t\tupline = users[upline].referrer;\n\t\t\t\t} else break;\n\t\t\t}\n\t\t}\n\n\t\tif (user.depositsLength == 0) {\n\t\t\tuser.checkpoint = block.timestamp;\n\t\t\ttotalUsers = totalUsers.add(1);\n\t\t\temit Newbie(msg.sender);\n\t\t}\n\n\t\tDeposit memory newDeposit;\n\t\tnewDeposit.amount = investAmt;\n\t\tnewDeposit.initAmount = investAmt;\n\t\tnewDeposit.start = block.timestamp;\n\t\tuser.deposits[user.depositsLength] = newDeposit;\n\t\tuser.depositsLength++;\n\n\t\ttotalInvested = totalInvested.add(investAmt);\n\t\ttotalDeposits = totalDeposits.add(1);\n\t\temit NewDeposit(msg.sender, investAmt);\n\t}\n\n\tfunction withdraw() external whenNotPaused checkUser_ returns(bool) {\n\t\trequire(isActive(msg.sender), \"Dont is User\");\n\t\tUser storage user = users[msg.sender];\n\n\t\tuint256 totalAmount;\n\t\tuint256 userPercentRate = getUserholdRate(msg.sender).add(getBonusPoolPercent());\n\n\t\tfor(uint256 i = 0; i < user.depositsLength; i++) {\n\t\t\tuint256 dividends;\n\t\t\tDeposit memory deposit = user.deposits[i];\n\n\t\t\tif(deposit.withdrawn < getMaxprofit(deposit)) {\n\t\t\t\tdividends = calculateDividents(deposit, userPercentRate, user);\n\n\t\t\t\tif(dividends > 0) {\n\t\t\t\t\tuser.deposits[i].withdrawn = user.deposits[i].withdrawn.add(dividends); /// changing of storage data\n\t\t\t\t\ttotalAmount = totalAmount.add(dividends);\n\t\t\t\t}\n\t\t\t}\n\t\t}\n\n\t\tuint256 referralBonus = user.bonus;\n\t\tif(referralBonus > 0) {\n\t\t\ttotalAmount = totalAmount.add(referralBonus);\n\t\t\tdelete user.bonus;\n\t\t}\n\n\t\trequire(totalAmount >= MIN_WITHDRAW, \"User has no dividends\");\n\n\t\tuint256 contractBalance = getContractBalance();\n\t\tif(contractBalance < totalAmount) {\n\t\t\ttotalAmount = contractBalance;\n\t\t}\n\n\t\tuser.checkpoint = block.timestamp;\n\n\t\tuint256 fee = (totalAmount.mul(WITHDRAW_FEE_PERCENT)).div(PERCENTS_DIVIDER);\n\n\t\tuint256 toTransfer = totalAmount.sub(fee);\n\n\t\ttotalWithdrawn = totalWithdrawn.add(totalAmount);\n\n\t\ttoken.transfer(secureAddress,fee);\n\n\t\ttoken.transfer(msg.sender,toTransfer);\n\n\n\t\temit FeePayed(msg.sender, fee);\n\t\temit Withdrawn(msg.sender, totalAmount);\n\t\treturn true;\n\n\t}\n\n\tfunction reinvestment() external whenNotPaused checkUser_ returns(bool) {\n\t\trequire(isActive(msg.sender), \"Dont is User\");\n\t\tUser storage user = users[msg.sender];\n\n\t\tuint256 totalDividends;\n\n\t\tuint256 userPercentRate = getUserholdRate(msg.sender).add(getBonusPoolPercent());\n\n\t\tfor(uint256 i = 0; i < user.depositsLength; i++) {\n\t\t\tuint256 dividends;\n\t\t\tDeposit memory deposit = user.deposits[i];\n\n\t\t\tif(deposit.withdrawn < getMaxprofit(deposit)) {\n\t\t\t\tdividends = calculateDividents(deposit, userPercentRate, user);\n\n\t\t\t\tif(dividends > 0) {\n\t\t\t\t\tuser.deposits[i].amount = user.deposits[i].amount.add(dividends);\n\t\t\t\t\ttotalDividends = totalDividends.add(dividends);\n\t\t\t\t}\n\t\t\t}\n\t\t}\n\n\t\trequire(totalDividends > 0, \"User has no dividends\");\n\n\t\tuser.reinvested = user.reinvested.add(totalDividends);\n\t\ttotalReinvested = totalReinvested.add(totalDividends);\n\t\tuser.lasReinvest = block.timestamp;\n\n\t\tuint256 fee = totalDividends.mul(INVEST_FEE).div(PERCENTS_DIVIDER).div(2);\n\t\ttoken.transfer(devAddress, fee);\n\t\ttoken.transfer(marketingAdress, fee);\n\t\temit FeePayed(msg.sender, fee);\n\t\temit Reinvestment(msg.sender, totalDividends);\n\t\treturn true;\n\t}\n\n\tfunction getNextUserAssignment(address userAddress) public view returns (uint256) {\n\t\tuint256 checkpoint = getlastActionDate(users[userAddress]);\n\t\tif(initDate > checkpoint)\n\t\t\tcheckpoint = initDate;\n\t\treturn checkpoint.add(TIME_STEP);\n\t}\n\n\tfunction getUserholdRate(address userAddress) public view returns (uint256) {\n\n\t\tif(isActive(userAddress)) {\n\t\t\t\tuint256 checkpoint = users[userAddress].checkpoint;\n\t\t\t\tif(initDate > checkpoint)\n\t\t\t\t\tcheckpoint = initDate;\n\t\t\t\tuint256 holdProfit = ((block.timestamp.sub(checkpoint)).div(TIME_STEP)).mul(HOLD_PERCENT);\n\t\t\t\tif(holdProfit > MAX_HOLD_PERCENT)\n\t\t\t\t\tholdProfit = MAX_HOLD_PERCENT;\n\t\t\t\treturn holdProfit;\n\t\t}\n\t}\n\n\tfunction getPublicData() external view returns(uint256 totalUsers_,\n\t\tuint256 totalInvested_,\n\t\tuint256 totalReinvested_,\n\t\tuint256 totalWithdrawn_,\n\t\tuint256 totalDeposits_,\n\t\tuint256 balance_,\n\t\tuint256 roidBase,\n\t\tuint256 bonusPool,\n\t\tuint256 comunityBonus,\n\t\tuint256 currentRoi,\n\t\tuint256 maxProfit,\n\t\tuint256 minDeposit,\n\t\tuint256 daysFormdeploy\n\t\t) {\n\t\ttotalUsers_ = totalUsers;\n\t\ttotalInvested_ = totalInvested;\n\t\ttotalReinvested_ = totalReinvested;\n\t\ttotalWithdrawn_ = totalWithdrawn;\n\t\ttotalDeposits_ = totalDeposits;\n\t\tbalance_ = getContractBalance();\n\t\troidBase = ROI_BASE;\n\t\tbonusPool = getBonusPoolPercent();\n\t\tcomunityBonus = getComunityBonus();\n\t\tcurrentRoi = ROI_BASE.add(comunityBonus).add(bonusPool);\n\t\tmaxProfit = MAX_PROFIT;\n\t\tminDeposit = INVEST_MIN_AMOUNT;\n\t\tdaysFormdeploy = (block.timestamp.sub(initDate)).div(TIME_STEP);\n\t}\n\n\tfunction getUserData(address userAddress) external view returns(uint256 totalWithdrawn_,\n\t\tuint256 totalDeposits_,\n\t\tuint256 totalBonus_,\n\t\tuint256 totalreinvest_,\n\t\tuint256 hold_,\n\t\tuint256 balance_,\n\t\tuint256 nextAssignment_,\n\t\tuint256 amountOfDeposits,\n\t\tuint256 checkpoint,\n\t\tbool isUser_,\n\t\taddress referrer_,\n\t\tuint256[3] memory referrerCount_\n\t){\n\t\tUser memory user = users[userAddress];\n\t\ttotalWithdrawn_ = getUserTotalWithdrawn(userAddress);\n\t\ttotalDeposits_ = getUserTotalDeposits(userAddress);\n\t\tnextAssignment_ = getNextUserAssignment(userAddress);\n\t\tbalance_ = getUserDividends(userAddress);\n\t\thold_ = getUserholdRate(userAddress);\n\t\ttotalreinvest_ = user.reinvested;\n\t\ttotalBonus_ = user.bonus;\n\t\tamountOfDeposits = user.depositsLength;\n\t\tcheckpoint = getlastActionDate(user);\n\t\tisUser_ = user.depositsLength > 0;\n\t\treferrer_ = user.referrer;\n\t\treferrerCount_ = user.referrerCount;\n\n\t}\n\n\tfunction getContractBalance() public view returns (uint256) {\n\t\treturn token.balanceOf(address(this));\n\t}\n\n\tfunction getUserDividends(address userAddress) internal view returns (uint256) {\n\t\tUser memory user = users[userAddress];\n\n\t\tuint256 totalDividends;\n\t\tuint256 userPercentRate = getUserholdRate(userAddress).add(getBonusPoolPercent());\n\n\t\tfor(uint256 i = 0; i < user.depositsLength; i++) {\n\n\t\t\tDeposit memory deposit = users[userAddress].deposits[i];\n\n\t\t\tif(deposit.withdrawn < getMaxprofit(deposit)) {\n\t\t\t\tuint256 dividends = calculateDividents(deposit, userPercentRate, user);\n\t\t\t\ttotalDividends = totalDividends.add(dividends);\n\t\t\t}\n\n\t\t}\n\n\t\treturn totalDividends;\n\t}\n\n\tfunction calculateDividents(Deposit memory deposit, uint256 userPercentRate, User memory user) internal view returns (uint256) {\n\t\tuint256 dividends;\n\t\tuint256\tdepositPercentRate = userPercentRate.add(getDepositRoi(deposit));\n\n\t\tuint256 checkDate = getDepsitStartDate(deposit);\n\n\t\tif(checkDate < getlastActionDate(user)) {\n\t\t\tcheckDate = getlastActionDate(user);\n\t\t}\n\n\t\tdividends = (deposit.amount\n\t\t.mul(depositPercentRate.mul(block.timestamp.sub(checkDate))))\n\t\t.div((PERCENTS_DIVIDER).mul(TIME_STEP))\n\t\t;\n\n\t\tif(deposit.withdrawn.add(dividends) > getMaxprofit(deposit)) {\n\t\t\tdividends = getMaxprofit(deposit).sub(deposit.withdrawn);\n\t\t}\n\t\treturn dividends;\n\n\t}\n\n\tfunction isActive(address userAddress) public view returns (bool) {\n\t\tUser memory user = users[userAddress];\n\n\t\tif (user.depositsLength > 0) {\n\t\t\tif(users[userAddress].deposits[user.depositsLength-1].withdrawn < getMaxprofit(users[userAddress].deposits[user.depositsLength-1])) {\n\t\t\t\treturn true;\n\t\t\t}\n\t\t}\n\t}\n\n\tfunction getUserDepositInfo(address userAddress, uint256 index) external view returns(\n\t\tuint256 initAmount_,\n\t\tuint256 amount_,\n\t\tuint256 withdrawn_,\n\t\tuint256 timeStart_,\n\t\tuint256 reinvested_,\n\t\tuint256 maxProfit\n\t\t) {\n\t\tUser memory user = users[userAddress];\n\t\tDeposit memory deposit = users[userAddress].deposits[index];\n\t\tinitAmount_ = deposit.initAmount;\n\t\tamount_ = deposit.amount;\n\t\twithdrawn_ = deposit.withdrawn;\n\t\ttimeStart_= getDepsitStartDate(deposit);\n\t\treinvested_ = user.reinvested;\n\t\tmaxProfit = getMaxprofit(deposit);\n\t}\n\n\n\tfunction getUserTotalDeposits(address userAddress) internal view returns(uint256) {\n\t\tUser memory user = users[userAddress];\n\t\tuint256 amount;\n\t\tfor(uint256 i = 0; i < user.depositsLength; i++) {\n\t\t\tamount = amount.add(users[userAddress].deposits[i].amount);\n\t\t}\n\t\treturn amount;\n\t}\n\n\tfunction getUserTotalWithdrawn(address userAddress) internal view returns(uint256) {\n\t\tUser memory user = users[userAddress];\n\n\t\tuint256 amount;\n\n\t\tfor(uint256 i = 0; i < user.depositsLength; i++) {\n\t\t\tamount = amount.add(users[userAddress].deposits[i].withdrawn);\n\t\t}\n\t\treturn amount;\n\t}\n\n\tfunction getlastActionDate(User memory user) internal view returns(uint256) {\n\t\tuint256 checkpoint;\n\t\tif(user.checkpoint > user.lasReinvest) {\n\t\t\tcheckpoint = user.checkpoint;\n\t\t} else {\n\t\t\tcheckpoint = user.lasReinvest;\n\t\t}\n\n\t\tif(initDate > checkpoint)\n\t\t\tcheckpoint = initDate;\n\n\t\treturn checkpoint;\n\t}\n\n\tfunction isContract(address addr) internal view returns (bool) {\n\t\tuint256 size;\n\t\tassembly { size := extcodesize(addr) }\n\t\treturn size > 0;\n\t}\n\n\tfunction getComunityBonus() public view returns(uint256) {\n\t\tuint256 delta = (block.timestamp.sub(initDate)).div(TIME_STEP);\n\t\tuint256 bonus = delta.mul(COMUNITY_BONUS);\n\t\tif(bonus > MAX_COMUNITY_BONUS) {\n\t\t\tbonus = MAX_COMUNITY_BONUS;\n\t\t}\n\t\treturn bonus;\n\t}\n\n\tfunction getDepositRoi(Deposit memory ndeposit) private view returns(uint256) {\n\t\tuint256 delta = (getDepsitStartDate(ndeposit).sub(initDate)).div(TIME_STEP);\n\t\tuint256 bonus = delta.mul(COMUNITY_BONUS);\n\t\tif(bonus > MAX_COMUNITY_BONUS) {\n\t\t\tbonus = MAX_COMUNITY_BONUS;\n\t\t}\n\t\treturn ROI_BASE.add(bonus);\n\t}\n\n\tfunction getDepsitStartDate(Deposit memory ndeposit) private view returns(uint256) {\n\t\tif(initDate > ndeposit.start) {\n\t\t\treturn initDate;\n\t\t} else {\n\t\t\treturn ndeposit.start;\n\t\t}\n\t}\n\n\tfunction getBonusPoolPercent() public view returns(uint256) {\n\t\tuint256 pool;\n\t\tpool = (getContractBalance().mul(BONUS_POOL)).div(POOL_DIVIDER);\n\t\tif(pool > MAX_BONUS_POOL) {\n\t\t\tpool = MAX_BONUS_POOL;\n\t\t}\n\t\treturn pool;\n\t}\n\n}\n",
  "sourcePath": "/media/Windows/Documentos/proyectos/solidity/Personal/Solidity-Snotrasys/contracts/cakeVaul/contracts/CakeVault.sol",
  "compiler": {
    "name": "solc",
    "version": "0.6.12+commit.27d51765.Emscripten.clang"
  },
  "schemaVersion": "3.4.1",
  "updatedAt": "2021-05-16T23:31:38.268Z",
  "devdoc": {
    "kind": "dev",
    "methods": {},
    "version": 1
  },
  "userdoc": {
    "kind": "user",
    "methods": {},
    "version": 1
  }
}