{
  "contractName": "CakeVault_State",
  "abi": [
    {
      "anonymous": false,
      "inputs": [
        {
          "indexed": false,
          "internalType": "address",
          "name": "account",
          "type": "address"
        }
      ],
      "name": "Paused",
      "type": "event"
    },
    {
      "anonymous": false,
      "inputs": [
        {
          "indexed": false,
          "internalType": "address",
          "name": "account",
          "type": "address"
        }
      ],
      "name": "Unpaused",
      "type": "event"
    },
    {
      "inputs": [],
      "name": "devAddress",
      "outputs": [
        {
          "internalType": "address",
          "name": "",
          "type": "address"
        }
      ],
      "stateMutability": "view",
      "type": "function"
    },
    {
      "inputs": [],
      "name": "marketingAdress",
      "outputs": [
        {
          "internalType": "address",
          "name": "",
          "type": "address"
        }
      ],
      "stateMutability": "view",
      "type": "function"
    },
    {
      "inputs": [],
      "name": "partnerAdress",
      "outputs": [
        {
          "internalType": "address",
          "name": "",
          "type": "address"
        }
      ],
      "stateMutability": "view",
      "type": "function"
    },
    {
      "inputs": [],
      "name": "projectAdress",
      "outputs": [
        {
          "internalType": "address",
          "name": "",
          "type": "address"
        }
      ],
      "stateMutability": "view",
      "type": "function"
    },
    {
      "inputs": [],
      "name": "secureAddress",
      "outputs": [
        {
          "internalType": "address",
          "name": "",
          "type": "address"
        }
      ],
      "stateMutability": "view",
      "type": "function"
    },
    {
      "inputs": [],
      "name": "token",
      "outputs": [
        {
          "internalType": "contract IBEP20",
          "name": "",
          "type": "address"
        }
      ],
      "stateMutability": "view",
      "type": "function"
    },
    {
      "inputs": [
        {
          "internalType": "address",
          "name": "",
          "type": "address"
        }
      ],
      "name": "users",
      "outputs": [
        {
          "internalType": "uint256",
          "name": "depositsLength",
          "type": "uint256"
        },
        {
          "internalType": "uint256",
          "name": "reinvested",
          "type": "uint256"
        },
        {
          "internalType": "uint256",
          "name": "bonus",
          "type": "uint256"
        },
        {
          "internalType": "uint256",
          "name": "checkpoint",
          "type": "uint256"
        },
        {
          "internalType": "uint256",
          "name": "lasReinvest",
          "type": "uint256"
        },
        {
          "internalType": "address payable",
          "name": "referrer",
          "type": "address"
        }
      ],
      "stateMutability": "view",
      "type": "function"
    },
    {
      "inputs": [],
      "name": "unpause",
      "outputs": [],
      "stateMutability": "nonpayable",
      "type": "function"
    },
    {
      "inputs": [],
      "name": "isPaused",
      "outputs": [
        {
          "internalType": "bool",
          "name": "",
          "type": "bool"
        }
      ],
      "stateMutability": "view",
      "type": "function"
    }
  ],
  "bytecode": "0x60806040526040518060600160405280603260ff168152602001601460ff168152602001600a60ff16815250600190600361003b92919061004e565b5034801561004857600080fd5b506100b0565b8260038101928215610082579160200282015b82811115610081578251829060ff16905591602001919060010190610061565b5b50905061008f9190610093565b5090565b5b808211156100ac576000816000905550600101610094565b5090565b61059c806100bf6000396000f3fe608060405234801561001057600080fd5b50600436106100935760003560e01c8063a87430ba11610066578063a87430ba1461013e578063b187bd26146101cf578063b83fff09146101ef578063ca6d919c14610223578063fc0c546a1461025757610093565b80633ad10ef6146100985780633f4ba83a146100cc578063520a5935146100d65780635a759d651461010a575b600080fd5b6100a061028b565b604051808273ffffffffffffffffffffffffffffffffffffffff16815260200191505060405180910390f35b6100d46102b1565b005b6100de610442565b604051808273ffffffffffffffffffffffffffffffffffffffff16815260200191505060405180910390f35b610112610468565b604051808273ffffffffffffffffffffffffffffffffffffffff16815260200191505060405180910390f35b6101806004803603602081101561015457600080fd5b81019080803573ffffffffffffffffffffffffffffffffffffffff16906020019092919050505061048e565b604051808781526020018681526020018581526020018481526020018381526020018273ffffffffffffffffffffffffffffffffffffffff168152602001965050505050505060405180910390f35b6101d76104ea565b60405180821515815260200191505060405180910390f35b6101f76104f6565b604051808273ffffffffffffffffffffffffffffffffffffffff16815260200191505060405180910390f35b61022b61051c565b604051808273ffffffffffffffffffffffffffffffffffffffff16815260200191505060405180910390f35b61025f610542565b604051808273ffffffffffffffffffffffffffffffffffffffff16815260200191505060405180910390f35b600d60009054906101000a900473ffffffffffffffffffffffffffffffffffffffff1681565b600060045414610329576040517f08c379a00000000000000000000000000000000000000000000000000000000081526004018080602001828103825260148152602001807f5061757361626c653a206e6f742070617573656400000000000000000000000081525060200191505060405180910390fd5b3373ffffffffffffffffffffffffffffffffffffffff16600d60009054906101000a900473ffffffffffffffffffffffffffffffffffffffff1673ffffffffffffffffffffffffffffffffffffffff16146103ec576040517f08c379a00000000000000000000000000000000000000000000000000000000081526004018080602001828103825260208152602001807f4f776e61626c653a2063616c6c6572206973206e6f7420746865206f776e657281525060200191505060405180910390fd5b426004819055507f5db9ee0a495bf2e6ff9c91a7834c1ba4fdd244a5e8aa4e537bd38aeae4b073aa33604051808273ffffffffffffffffffffffffffffffffffffffff16815260200191505060405180910390a1565b600b60009054906101000a900473ffffffffffffffffffffffffffffffffffffffff1681565b600e60009054906101000a900473ffffffffffffffffffffffffffffffffffffffff1681565b600f6020528060005260406000206000915090508060010154908060020154908060030154908060040154908060050154908060090160009054906101000a900473ffffffffffffffffffffffffffffffffffffffff16905086565b60008060045414905090565b600c60009054906101000a900473ffffffffffffffffffffffffffffffffffffffff1681565b600a60009054906101000a900473ffffffffffffffffffffffffffffffffffffffff1681565b60008054906101000a900473ffffffffffffffffffffffffffffffffffffffff168156fea26469706673582212203714251eee0f2c1f684bd6e4ce1163dca1e73cff176df802955c3f461ee713a664736f6c634300060c0033",
  "immutableReferences": {},
  "source": "// SPDX-License-Identifier: MIT\npragma solidity ^0.6.12;\nimport \"./SafeMath.sol\";\nimport \"./IBEP20.sol\";\n\ncontract CakeVault_State{\n\tusing SafeMath for uint256;\n\tIBEP20 public token;\n\tuint256[3] internal REFERRAL_PERCENTS = [50, 20, 10];\n\tuint256 constant internal INVEST_MIN_AMOUNT = 250 finney ;\n\tuint256 constant internal ROI_BASE = 80;\n\tuint256 constant internal COMUNITY_BONUS = 10;\n\tuint256 constant internal MAX_COMUNITY_BONUS = 80;\n\tuint256 constant internal INVEST_FEE = 100;\n\tuint256 constant internal SECURE_FEE = 20;\n\tuint256 constant internal MIN_WITHDRAW = 250 finney;\n\tuint256 constant internal WITHDRAW_FEE_PERCENT = 50;\n\tuint256 constant internal HOLD_PERCENT = 5;\n\tuint256 constant internal MAX_HOLD_PERCENT = 60;\n\tuint256 constant internal BONUS_POOL = 1;\n\tuint256 constant internal MAX_BONUS_POOL = 80;\n\tuint256 constant internal POOL_DIVIDER = 200 ether;\n\tuint256 constant internal MAX_PROFIT = 2000;\n\tuint256 constant internal PERCENTS_DIVIDER = 1000;\n\tuint256 constant internal TIME_STEP = 1 days;\n\n\tuint256 internal initDate;\n\n\tuint256 internal totalUsers;\n\tuint256 internal totalInvested;\n\tuint256 internal totalWithdrawn;\n\tuint256 internal totalDeposits;\n\tuint256 internal totalReinvested;\n\n\taddress public partnerAdress;\n\t\n\taddress public marketingAdress;\n\taddress public projectAdress;\n\taddress public devAddress;\n\taddress public secureAddress;\n\n\tstruct Deposit {\n\t\tuint256 amount;\n\t\tuint256 withdrawn;\n\t\tuint256 initAmount;\n\t\tuint256 start;\n\t}\n\n\tstruct User {\n\t\tmapping (uint256 => Deposit) deposits;\n\t\tuint256 depositsLength;\n\t\tuint256 reinvested;\n\t\tuint256 bonus;\n\t\tuint256 checkpoint;\n\t\tuint256 lasReinvest;\n\t\tuint256[3] referrerCount;\n\t\taddress payable referrer;\n\t}\n\n\tmapping (address => User) public users;\n\n\tevent Paused(address account);\n\tevent Unpaused(address account);\n\n\tmodifier onlyOwner() {\n\t\trequire(devAddress == msg.sender, \"Ownable: caller is not the owner\");\n\t\t_;\n\t}\n\n\tmodifier whenNotPaused() {\n\t\trequire(initDate > 0, \"Pausable: paused\");\n\t\t_;\n\t}\n\n\tmodifier whenPaused() {\n\t\trequire(initDate == 0, \"Pausable: not paused\");\n\t\t_;\n\t}\n\n\tfunction unpause() external whenPaused onlyOwner{\n\t\tinitDate = block.timestamp;\n\t\temit Unpaused(msg.sender);\n\t}\n\n\tfunction isPaused() external view returns(bool) {\n\t\treturn (initDate == 0);\n\t}\n\n\tfunction getMaxprofit(Deposit memory ndeposit) internal pure returns(uint256) {\n\t\treturn (ndeposit.initAmount.mul(MAX_PROFIT)).div(PERCENTS_DIVIDER);\n\t}\n\n}\n",
  "sourcePath": "/media/Windows/Documentos/proyectos/solidity/Personal/Solidity-Snotrasys/contracts/cakeVaul/contracts/CakeVault_State.sol",
  "compiler": {
    "name": "solc",
    "version": "0.6.12+commit.27d51765.Emscripten.clang"
  },
  "schemaVersion": "3.4.1",
  "updatedAt": "2021-05-16T23:31:38.304Z",
  "devdoc": {
    "kind": "dev",
    "methods": {},
    "version": 1
  },
  "userdoc": {
    "kind": "user",
    "methods": {},
    "version": 1
  }
}